{"contracts/tokens/BPSToken.sol":{"BPSToken":{"abi":[{"inputs":[{"internalType":"string","name":"name","type":"string"},{"internalType":"string","name":"symbol","type":"string"},{"internalType":"uint256","name":"initialSupply","type":"uint256"},{"internalType":"address","name":"_taxReceiver","type":"address"}],"stateMutability":"nonpayable","type":"constructor"},{"anonymous":false,"inputs":[{"indexed":true,"internalType":"address","name":"owner","type":"address"},{"indexed":true,"internalType":"address","name":"spender","type":"address"},{"indexed":false,"internalType":"uint256","name":"value","type":"uint256"}],"name":"Approval","type":"event"},{"anonymous":false,"inputs":[{"indexed":true,"internalType":"address","name":"previousOwner","type":"address"},{"indexed":true,"internalType":"address","name":"newOwner","type":"address"}],"name":"OwnershipTransferred","type":"event"},{"anonymous":false,"inputs":[{"indexed":false,"internalType":"address","name":"account","type":"address"}],"name":"Paused","type":"event"},{"anonymous":false,"inputs":[{"indexed":true,"internalType":"address","name":"from","type":"address"},{"indexed":true,"internalType":"address","name":"to","type":"address"},{"indexed":false,"internalType":"uint256","name":"taxAmount","type":"uint256"}],"name":"TaxCollected","type":"event"},{"anonymous":false,"inputs":[{"indexed":true,"internalType":"address","name":"oldReceiver","type":"address"},{"indexed":true,"internalType":"address","name":"newReceiver","type":"address"}],"name":"TaxReceiverUpdated","type":"event"},{"anonymous":false,"inputs":[{"indexed":true,"internalType":"address","name":"from","type":"address"},{"indexed":true,"internalType":"address","name":"to","type":"address"},{"indexed":false,"internalType":"uint256","name":"value","type":"uint256"}],"name":"Transfer","type":"event"},{"anonymous":false,"inputs":[{"indexed":false,"internalType":"address","name":"account","type":"address"}],"name":"Unpaused","type":"event"},{"inputs":[],"name":"BASIS_POINTS","outputs":[{"internalType":"uint256","name":"","type":"uint256"}],"stateMutability":"view","type":"function"},{"inputs":[],"name":"TAX_RATE","outputs":[{"internalType":"uint256","name":"","type":"uint256"}],"stateMutability":"view","type":"function"},{"inputs":[{"internalType":"address","name":"owner","type":"address"},{"internalType":"address","name":"spender","type":"address"}],"name":"allowance","outputs":[{"internalType":"uint256","name":"","type":"uint256"}],"stateMutability":"view","type":"function"},{"inputs":[{"internalType":"address","name":"spender","type":"address"},{"internalType":"uint256","name":"amount","type":"uint256"}],"name":"approve","outputs":[{"internalType":"bool","name":"","type":"bool"}],"stateMutability":"nonpayable","type":"function"},{"inputs":[{"internalType":"address","name":"account","type":"address"}],"name":"balanceOf","outputs":[{"internalType":"uint256","name":"","type":"uint256"}],"stateMutability":"view","type":"function"},{"inputs":[{"internalType":"uint256","name":"amount","type":"uint256"}],"name":"burn","outputs":[],"stateMutability":"nonpayable","type":"function"},{"inputs":[{"internalType":"address","name":"account","type":"address"},{"internalType":"uint256","name":"amount","type":"uint256"}],"name":"burnFrom","outputs":[],"stateMutability":"nonpayable","type":"function"},{"inputs":[{"internalType":"uint256","name":"amount","type":"uint256"}],"name":"calculateNetAmount","outputs":[{"internalType":"uint256","name":"","type":"uint256"}],"stateMutability":"pure","type":"function"},{"inputs":[{"internalType":"uint256","name":"amount","type":"uint256"}],"name":"calculateTax","outputs":[{"internalType":"uint256","name":"","type":"uint256"}],"stateMutability":"pure","type":"function"},{"inputs":[],"name":"decimals","outputs":[{"internalType":"uint8","name":"","type":"uint8"}],"stateMutability":"view","type":"function"},{"inputs":[{"internalType":"address","name":"spender","type":"address"},{"internalType":"uint256","name":"subtractedValue","type":"uint256"}],"name":"decreaseAllowance","outputs":[{"internalType":"bool","name":"","type":"bool"}],"stateMutability":"nonpayable","type":"function"},{"inputs":[{"internalType":"address","name":"spender","type":"address"},{"internalType":"uint256","name":"addedValue","type":"uint256"}],"name":"increaseAllowance","outputs":[{"internalType":"bool","name":"","type":"bool"}],"stateMutability":"nonpayable","type":"function"},{"inputs":[{"internalType":"address","name":"to","type":"address"},{"internalType":"uint256","name":"amount","type":"uint256"}],"name":"mint","outputs":[],"stateMutability":"nonpayable","type":"function"},{"inputs":[],"name":"name","outputs":[{"internalType":"string","name":"","type":"string"}],"stateMutability":"view","type":"function"},{"inputs":[],"name":"owner","outputs":[{"internalType":"address","name":"","type":"address"}],"stateMutability":"view","type":"function"},{"inputs":[],"name":"pause","outputs":[],"stateMutability":"nonpayable","type":"function"},{"inputs":[],"name":"paused","outputs":[{"internalType":"bool","name":"","type":"bool"}],"stateMutability":"view","type":"function"},{"inputs":[],"name":"renounceOwnership","outputs":[],"stateMutability":"nonpayable","type":"function"},{"inputs":[{"internalType":"address","name":"_newTaxReceiver","type":"address"}],"name":"setTaxReceiver","outputs":[],"stateMutability":"nonpayable","type":"function"},{"inputs":[],"name":"symbol","outputs":[{"internalType":"string","name":"","type":"string"}],"stateMutability":"view","type":"function"},{"inputs":[],"name":"taxReceiver","outputs":[{"internalType":"address","name":"","type":"address"}],"stateMutability":"view","type":"function"},{"inputs":[],"name":"totalSupply","outputs":[{"internalType":"uint256","name":"","type":"uint256"}],"stateMutability":"view","type":"function"},{"inputs":[{"internalType":"address","name":"to","type":"address"},{"internalType":"uint256","name":"amount","type":"uint256"}],"name":"transfer","outputs":[{"internalType":"bool","name":"","type":"bool"}],"stateMutability":"nonpayable","type":"function"},{"inputs":[{"internalType":"address","name":"from","type":"address"},{"internalType":"address","name":"to","type":"address"},{"internalType":"uint256","name":"amount","type":"uint256"}],"name":"transferFrom","outputs":[{"internalType":"bool","name":"","type":"bool"}],"stateMutability":"nonpayable","type":"function"},{"inputs":[{"internalType":"address","name":"newOwner","type":"address"}],"name":"transferOwnership","outputs":[],"stateMutability":"nonpayable","type":"function"},{"inputs":[],"name":"unpause","outputs":[],"stateMutability":"nonpayable","type":"function"}],"evm":{"bytecode":{"linkReferences":{},"object":"608060405234801561001057600080fd5b5060405161185038038061185083398101604081905261002f91610356565b8383600361003d8382610471565b50600461004a8282610471565b50506005805460ff191690555061006033610111565b6001600160a01b0381166100c75760405162461bcd60e51b815260206004820152602360248201527f5461782072656365697665722063616e6e6f74206265207a65726f206164647260448201526265737360e81b60648201526084015b60405180910390fd5b600680546001600160a01b0319166001600160a01b038316179055610108336100ee601290565b6100f990600a61062e565b6101039085610644565b61016b565b5050505061066e565b600580546001600160a01b03838116610100818102610100600160a81b031985161790945560405193909204169182907f8be0079c531659141344cd1fd0a4f28419497f9722a3daafe3b4186f6b6457e090600090a35050565b6001600160a01b0382166101c15760405162461bcd60e51b815260206004820152601f60248201527f45524332303a206d696e7420746f20746865207a65726f20616464726573730060448201526064016100be565b6101cd60008383610236565b80600260008282546101df919061065b565b90915550506001600160a01b038216600081815260208181526040808320805486019055518481527fddf252ad1be2c89b69c2b068fc378daa952ba7f163c4a11628f55a4df523b3ef910160405180910390a35050565b61023e610255565b6102508383836001600160e01b038416565b505050565b60055460ff161561029b5760405162461bcd60e51b815260206004820152601060248201526f14185d5cd8589b194e881c185d5cd95960821b60448201526064016100be565b565b634e487b7160e01b600052604160045260246000fd5b600082601f8301126102c457600080fd5b81516001600160401b038111156102dd576102dd61029d565b604051601f8201601f19908116603f011681016001600160401b038111828210171561030b5761030b61029d565b60405281815283820160200185101561032357600080fd5b60005b8281101561034257602081860181015183830182015201610326565b506000918101602001919091529392505050565b6000806000806080858703121561036c57600080fd5b84516001600160401b0381111561038257600080fd5b61038e878288016102b3565b602087015190955090506001600160401b038111156103ac57600080fd5b6103b8878288016102b3565b60408701516060880151919550935090506001600160a01b03811681146103de57600080fd5b939692955090935050565b600181811c908216806103fd57607f821691505b60208210810361041d57634e487b7160e01b600052602260045260246000fd5b50919050565b601f82111561025057806000526020600020601f840160051c8101602085101561044a5750805b601f840160051c820191505b8181101561046a5760008155600101610456565b5050505050565b81516001600160401b0381111561048a5761048a61029d565b61049e8161049884546103e9565b84610423565b6020601f8211600181146104d257600083156104ba5750848201515b600019600385901b1c1916600184901b17845561046a565b600084815260208120601f198516915b8281101561050257878501518255602094850194600190920191016104e2565b50848210156105205786840151600019600387901b60f8161c191681555b50505050600190811b01905550565b634e487b7160e01b600052601160045260246000fd5b6001815b6001841115610580578085048111156105645761056461052f565b600184161561057257908102905b60019390931c928002610549565b935093915050565b60008261059757506001610628565b816105a457506000610628565b81600181146105ba57600281146105c4576105e0565b6001915050610628565b60ff8411156105d5576105d561052f565b50506001821b610628565b5060208310610133831016604e8410600b8410161715610603575081810a610628565b6106106000198484610545565b80600019048211156106245761062461052f565b0290505b92915050565b600061063d60ff841683610588565b9392505050565b80820281158282048414176106285761062861052f565b808201808211156106285761062861052f565b6111d38061067d6000396000f3fe608060405234801561001057600080fd5b506004361061018e5760003560e01c806379cc6790116100de578063a9059cbb11610097578063dd62ed3e11610071578063dd62ed3e1461033b578063e1f1c4a71461034e578063e6ef73d614610357578063f2fde38b1461036a57600080fd5b8063a9059cbb14610302578063bdab6fc614610315578063cd8de42c1461032857600080fd5b806379cc67901461029a57806383f170be146102ad5780638456cb59146102b55780638da5cb5b146102bd57806395d89b41146102e7578063a457c2d7146102ef57600080fd5b80633f4ba83a1161014b578063483a931011610125578063483a93101461024b5780635c975abb1461025e57806370a0823114610269578063715018a61461029257600080fd5b80633f4ba83a1461021b57806340c10f191461022557806342966c681461023857600080fd5b806306fdde0314610193578063095ea7b3146101b157806318160ddd146101d457806323b872dd146101e6578063313ce567146101f95780633950935114610208575b600080fd5b61019b61037d565b6040516101a89190610f2e565b60405180910390f35b6101c46101bf366004610f98565b61040f565b60405190151581526020016101a8565b6002545b6040519081526020016101a8565b6101c46101f4366004610fc2565b610429565b604051601281526020016101a8565b6101c4610216366004610f98565b610455565b610223610477565b005b610223610233366004610f98565b610489565b610223610246366004610fff565b61049f565b6101d8610259366004610fff565b6104ac565b60055460ff166101c4565b6101d8610277366004611018565b6001600160a01b031660009081526020819052604090205490565b6102236104c6565b6102236102a8366004610f98565b6104d8565b6101d8606481565b6102236104ed565b60055461010090046001600160a01b03165b6040516001600160a01b0390911681526020016101a8565b61019b6104fd565b6101c46102fd366004610f98565b61050c565b6101c4610310366004610f98565b61058c565b6101d8610323366004610fff565b6105a2565b610223610336366004611018565b6105c1565b6101d8610349366004611033565b61067d565b6101d861271081565b6006546102cf906001600160a01b031681565b610223610378366004611018565b6106a8565b60606003805461038c90611066565b80601f01602080910402602001604051908101604052809291908181526020018280546103b890611066565b80156104055780601f106103da57610100808354040283529160200191610405565b820191906000526020600020905b8154815290600101906020018083116103e857829003601f168201915b5050505050905090565b60003361041d81858561071e565b60019150505b92915050565b6000610433610842565b3361043f858285610888565b61044a858585610902565b506001949350505050565b60003361041d818585610468838361067d565b61047291906110b6565b61071e565b61047f610a56565b610487610ab6565b565b610491610a56565b61049b8282610b08565b5050565b6104a93382610bd3565b50565b60006127106104bc6064846110c9565b61042391906110e0565b6104ce610a56565b6104876000610d11565b6104e3823383610888565b61049b8282610bd3565b6104f5610a56565b610487610d6b565b60606004805461038c90611066565b6000338161051a828661067d565b90508381101561057f5760405162461bcd60e51b815260206004820152602560248201527f45524332303a2064656372656173656420616c6c6f77616e63652062656c6f77604482015264207a65726f60d81b60648201526084015b60405180910390fd5b61044a828686840361071e565b6000610596610842565b3361041d818585610902565b6000806105ae836104ac565b90506105ba8184611102565b9392505050565b6105c9610a56565b6001600160a01b03811661062b5760405162461bcd60e51b815260206004820152602360248201527f5461782072656365697665722063616e6e6f74206265207a65726f206164647260448201526265737360e81b6064820152608401610576565b600680546001600160a01b038381166001600160a01b0319831681179093556040519116919082907ff970bc488f38cdc7caf559de1924e9c564d90c54d1767c82df2cbc55c9829a5e90600090a35050565b6001600160a01b03918216600090815260016020908152604080832093909416825291909152205490565b6106b0610a56565b6001600160a01b0381166107155760405162461bcd60e51b815260206004820152602660248201527f4f776e61626c653a206e6577206f776e657220697320746865207a65726f206160448201526564647265737360d01b6064820152608401610576565b6104a981610d11565b6001600160a01b0383166107805760405162461bcd60e51b8152602060048201526024808201527f45524332303a20617070726f76652066726f6d20746865207a65726f206164646044820152637265737360e01b6064820152608401610576565b6001600160a01b0382166107e15760405162461bcd60e51b815260206004820152602260248201527f45524332303a20617070726f766520746f20746865207a65726f206164647265604482015261737360f01b6064820152608401610576565b6001600160a01b0383811660008181526001602090815260408083209487168084529482529182902085905590518481527f8c5be1e5ebec7d5bd14f71427d1e84f3dd0314c0f7b2291e5b200ac8c7c3b925910160405180910390a3505050565b60055460ff16156104875760405162461bcd60e51b815260206004820152601060248201526f14185d5cd8589b194e881c185d5cd95960821b6044820152606401610576565b6000610894848461067d565b905060001981146108fc57818110156108ef5760405162461bcd60e51b815260206004820152601d60248201527f45524332303a20696e73756666696369656e7420616c6c6f77616e63650000006044820152606401610576565b6108fc848484840361071e565b50505050565b6001600160a01b0383166109285760405162461bcd60e51b815260040161057690611115565b6001600160a01b03821661094e5760405162461bcd60e51b81526004016105769061115a565b6005546001600160a01b0384811661010090920416148061098157506005546001600160a01b0383811661010090920416145b8061099957506006546001600160a01b038481169116145b156109ae576109a9838383610da8565b505050565b60006127106109be6064846110c9565b6109c891906110e0565b905060006109d68284611102565b90506109e3858583610da8565b8115610a4f57600654610a019086906001600160a01b031684610da8565b836001600160a01b0316856001600160a01b03167f5d37fd68fe66745a199f8c603e00ae02183f4aabb8ec0089589b0b40c4ead5e184604051610a4691815260200190565b60405180910390a35b5050505050565b6005546001600160a01b036101009091041633146104875760405162461bcd60e51b815260206004820181905260248201527f4f776e61626c653a2063616c6c6572206973206e6f7420746865206f776e65726044820152606401610576565b610abe610edd565b6005805460ff191690557f5db9ee0a495bf2e6ff9c91a7834c1ba4fdd244a5e8aa4e537bd38aeae4b073aa335b6040516001600160a01b03909116815260200160405180910390a1565b6001600160a01b038216610b5e5760405162461bcd60e51b815260206004820152601f60248201527f45524332303a206d696e7420746f20746865207a65726f2061646472657373006044820152606401610576565b610b6a60008383610f26565b8060026000828254610b7c91906110b6565b90915550506001600160a01b038216600081815260208181526040808320805486019055518481527fddf252ad1be2c89b69c2b068fc378daa952ba7f163c4a11628f55a4df523b3ef910160405180910390a35050565b6001600160a01b038216610c335760405162461bcd60e51b815260206004820152602160248201527f45524332303a206275726e2066726f6d20746865207a65726f206164647265736044820152607360f81b6064820152608401610576565b610c3f82600083610f26565b6001600160a01b03821660009081526020819052604090205481811015610cb35760405162461bcd60e51b815260206004820152602260248201527f45524332303a206275726e20616d6f756e7420657863656564732062616c616e604482015261636560f01b6064820152608401610576565b6001600160a01b0383166000818152602081815260408083208686039055600280548790039055518581529192917fddf252ad1be2c89b69c2b068fc378daa952ba7f163c4a11628f55a4df523b3ef910160405180910390a3505050565b600580546001600160a01b03838116610100818102610100600160a81b031985161790945560405193909204169182907f8be0079c531659141344cd1fd0a4f28419497f9722a3daafe3b4186f6b6457e090600090a35050565b610d73610842565b6005805460ff191660011790557f62e78cea01bee320cd4e420270b5ea74000d11b0c9f74754ebdbfc544b05a258610aeb3390565b6001600160a01b038316610dce5760405162461bcd60e51b815260040161057690611115565b6001600160a01b038216610df45760405162461bcd60e51b81526004016105769061115a565b610dff838383610f26565b6001600160a01b03831660009081526020819052604090205481811015610e775760405162461bcd60e51b815260206004820152602660248201527f45524332303a207472616e7366657220616d6f756e7420657863656564732062604482015265616c616e636560d01b6064820152608401610576565b6001600160a01b03848116600081815260208181526040808320878703905593871680835291849020805487019055925185815290927fddf252ad1be2c89b69c2b068fc378daa952ba7f163c4a11628f55a4df523b3ef910160405180910390a36108fc565b60055460ff166104875760405162461bcd60e51b815260206004820152601460248201527314185d5cd8589b194e881b9bdd081c185d5cd95960621b6044820152606401610576565b6109a9610842565b602081526000825180602084015260005b81811015610f5c5760208186018101516040868401015201610f3f565b506000604082850101526040601f19601f83011684010191505092915050565b80356001600160a01b0381168114610f9357600080fd5b919050565b60008060408385031215610fab57600080fd5b610fb483610f7c565b946020939093013593505050565b600080600060608486031215610fd757600080fd5b610fe084610f7c565b9250610fee60208501610f7c565b929592945050506040919091013590565b60006020828403121561101157600080fd5b5035919050565b60006020828403121561102a57600080fd5b6105ba82610f7c565b6000806040838503121561104657600080fd5b61104f83610f7c565b915061105d60208401610f7c565b90509250929050565b600181811c9082168061107a57607f821691505b60208210810361109a57634e487b7160e01b600052602260045260246000fd5b50919050565b634e487b7160e01b600052601160045260246000fd5b80820180821115610423576104236110a0565b8082028115828204841417610423576104236110a0565b6000826110fd57634e487b7160e01b600052601260045260246000fd5b500490565b81810381811115610423576104236110a0565b60208082526025908201527f45524332303a207472616e736665722066726f6d20746865207a65726f206164604082015264647265737360d81b606082015260800190565b60208082526023908201527f45524332303a207472616e7366657220746f20746865207a65726f206164647260408201526265737360e81b60608201526080019056fea264697066735822122035895a8dbc70b9d465dcabad80c45dd854f1014d38991ff5de208a16cf83f09b64736f6c634300081c0033","opcodes":"PUSH1 0x80 PUSH1 0x40 MSTORE CALLVALUE DUP1 ISZERO PUSH2 0x10 JUMPI PUSH1 0x0 DUP1 REVERT JUMPDEST POP PUSH1 0x40 MLOAD PUSH2 0x1850 CODESIZE SUB DUP1 PUSH2 0x1850 DUP4 CODECOPY DUP2 ADD PUSH1 0x40 DUP2 SWAP1 MSTORE PUSH2 0x2F SWAP2 PUSH2 0x356 JUMP JUMPDEST DUP4 DUP4 PUSH1 0x3 PUSH2 0x3D DUP4 DUP3 PUSH2 0x471 JUMP JUMPDEST POP PUSH1 0x4 PUSH2 0x4A DUP3 DUP3 PUSH2 0x471 JUMP JUMPDEST POP POP PUSH1 0x5 DUP1 SLOAD PUSH1 0xFF NOT AND SWAP1 SSTORE POP PUSH2 0x60 CALLER PUSH2 0x111 JUMP JUMPDEST PUSH1 0x1 PUSH1 0x1 PUSH1 0xA0 SHL SUB DUP2 AND PUSH2 0xC7 JUMPI PUSH1 0x40 MLOAD PUSH3 0x461BCD PUSH1 0xE5 SHL DUP2 MSTORE PUSH1 0x20 PUSH1 0x4 DUP3 ADD MSTORE PUSH1 0x23 PUSH1 0x24 DUP3 ADD MSTORE PUSH32 0x5461782072656365697665722063616E6E6F74206265207A65726F2061646472 PUSH1 0x44 DUP3 ADD MSTORE PUSH3 0x657373 PUSH1 0xE8 SHL PUSH1 0x64 DUP3 ADD MSTORE PUSH1 0x84 ADD JUMPDEST PUSH1 0x40 MLOAD DUP1 SWAP2 SUB SWAP1 REVERT JUMPDEST PUSH1 0x6 DUP1 SLOAD PUSH1 0x1 PUSH1 0x1 PUSH1 0xA0 SHL SUB NOT AND PUSH1 0x1 PUSH1 0x1 PUSH1 0xA0 SHL SUB DUP4 AND OR SWAP1 SSTORE PUSH2 0x108 CALLER PUSH2 0xEE PUSH1 0x12 SWAP1 JUMP JUMPDEST PUSH2 0xF9 SWAP1 PUSH1 0xA PUSH2 0x62E JUMP JUMPDEST PUSH2 0x103 SWAP1 DUP6 PUSH2 0x644 JUMP JUMPDEST PUSH2 0x16B JUMP JUMPDEST POP POP POP POP PUSH2 0x66E JUMP JUMPDEST PUSH1 0x5 DUP1 SLOAD PUSH1 0x1 PUSH1 0x1 PUSH1 0xA0 SHL SUB DUP4 DUP2 AND PUSH2 0x100 DUP2 DUP2 MUL PUSH2 0x100 PUSH1 0x1 PUSH1 0xA8 SHL SUB NOT DUP6 AND OR SWAP1 SWAP5 SSTORE PUSH1 0x40 MLOAD SWAP4 SWAP1 SWAP3 DIV AND SWAP2 DUP3 SWAP1 PUSH32 0x8BE0079C531659141344CD1FD0A4F28419497F9722A3DAAFE3B4186F6B6457E0 SWAP1 PUSH1 0x0 SWAP1 LOG3 POP POP JUMP JUMPDEST PUSH1 0x1 PUSH1 0x1 PUSH1 0xA0 SHL SUB DUP3 AND PUSH2 0x1C1 JUMPI PUSH1 0x40 MLOAD PUSH3 0x461BCD PUSH1 0xE5 SHL DUP2 MSTORE PUSH1 0x20 PUSH1 0x4 DUP3 ADD MSTORE PUSH1 0x1F PUSH1 0x24 DUP3 ADD MSTORE PUSH32 0x45524332303A206D696E7420746F20746865207A65726F206164647265737300 PUSH1 0x44 DUP3 ADD MSTORE PUSH1 0x64 ADD PUSH2 0xBE JUMP JUMPDEST PUSH2 0x1CD PUSH1 0x0 DUP4 DUP4 PUSH2 0x236 JUMP JUMPDEST DUP1 PUSH1 0x2 PUSH1 0x0 DUP3 DUP3 SLOAD PUSH2 0x1DF SWAP2 SWAP1 PUSH2 0x65B JUMP JUMPDEST SWAP1 SWAP2 SSTORE POP POP PUSH1 0x1 PUSH1 0x1 PUSH1 0xA0 SHL SUB DUP3 AND PUSH1 0x0 DUP2 DUP2 MSTORE PUSH1 0x20 DUP2 DUP2 MSTORE PUSH1 0x40 DUP1 DUP4 KECCAK256 DUP1 SLOAD DUP7 ADD SWAP1 SSTORE MLOAD DUP5 DUP2 MSTORE PUSH32 0xDDF252AD1BE2C89B69C2B068FC378DAA952BA7F163C4A11628F55A4DF523B3EF SWAP2 ADD PUSH1 0x40 MLOAD DUP1 SWAP2 SUB SWAP1 LOG3 POP POP JUMP JUMPDEST PUSH2 0x23E PUSH2 0x255 JUMP JUMPDEST PUSH2 0x250 DUP4 DUP4 DUP4 PUSH1 0x1 PUSH1 0x1 PUSH1 0xE0 SHL SUB DUP5 AND JUMP JUMPDEST POP POP POP JUMP JUMPDEST PUSH1 0x5 SLOAD PUSH1 0xFF AND ISZERO PUSH2 0x29B JUMPI PUSH1 0x40 MLOAD PUSH3 0x461BCD PUSH1 0xE5 SHL DUP2 MSTORE PUSH1 0x20 PUSH1 0x4 DUP3 ADD MSTORE PUSH1 0x10 PUSH1 0x24 DUP3 ADD MSTORE PUSH16 0x14185D5CD8589B194E881C185D5CD959 PUSH1 0x82 SHL PUSH1 0x44 DUP3 ADD MSTORE PUSH1 0x64 ADD PUSH2 0xBE JUMP JUMPDEST JUMP JUMPDEST PUSH4 0x4E487B71 PUSH1 0xE0 SHL PUSH1 0x0 MSTORE PUSH1 0x41 PUSH1 0x4 MSTORE PUSH1 0x24 PUSH1 0x0 REVERT JUMPDEST PUSH1 0x0 DUP3 PUSH1 0x1F DUP4 ADD SLT PUSH2 0x2C4 JUMPI PUSH1 0x0 DUP1 REVERT JUMPDEST DUP2 MLOAD PUSH1 0x1 PUSH1 0x1 PUSH1 0x40 SHL SUB DUP2 GT ISZERO PUSH2 0x2DD JUMPI PUSH2 0x2DD PUSH2 0x29D JUMP JUMPDEST PUSH1 0x40 MLOAD PUSH1 0x1F DUP3 ADD PUSH1 0x1F NOT SWAP1 DUP2 AND PUSH1 0x3F ADD AND DUP2 ADD PUSH1 0x1 PUSH1 0x1 PUSH1 0x40 SHL SUB DUP2 GT DUP3 DUP3 LT OR ISZERO PUSH2 0x30B JUMPI PUSH2 0x30B PUSH2 0x29D JUMP JUMPDEST PUSH1 0x40 MSTORE DUP2 DUP2 MSTORE DUP4 DUP3 ADD PUSH1 0x20 ADD DUP6 LT ISZERO PUSH2 0x323 JUMPI PUSH1 0x0 DUP1 REVERT JUMPDEST PUSH1 0x0 JUMPDEST DUP3 DUP2 LT ISZERO PUSH2 0x342 JUMPI PUSH1 0x20 DUP2 DUP7 ADD DUP2 ADD MLOAD DUP4 DUP4 ADD DUP3 ADD MSTORE ADD PUSH2 0x326 JUMP JUMPDEST POP PUSH1 0x0 SWAP2 DUP2 ADD PUSH1 0x20 ADD SWAP2 SWAP1 SWAP2 MSTORE SWAP4 SWAP3 POP POP POP JUMP JUMPDEST PUSH1 0x0 DUP1 PUSH1 0x0 DUP1 PUSH1 0x80 DUP6 DUP8 SUB SLT ISZERO PUSH2 0x36C JUMPI PUSH1 0x0 DUP1 REVERT JUMPDEST DUP5 MLOAD PUSH1 0x1 PUSH1 0x1 PUSH1 0x40 SHL SUB DUP2 GT ISZERO PUSH2 0x382 JUMPI PUSH1 0x0 DUP1 REVERT JUMPDEST PUSH2 0x38E DUP8 DUP3 DUP9 ADD PUSH2 0x2B3 JUMP JUMPDEST PUSH1 0x20 DUP8 ADD MLOAD SWAP1 SWAP6 POP SWAP1 POP PUSH1 0x1 PUSH1 0x1 PUSH1 0x40 SHL SUB DUP2 GT ISZERO PUSH2 0x3AC JUMPI PUSH1 0x0 DUP1 REVERT JUMPDEST PUSH2 0x3B8 DUP8 DUP3 DUP9 ADD PUSH2 0x2B3 JUMP JUMPDEST PUSH1 0x40 DUP8 ADD MLOAD PUSH1 0x60 DUP9 ADD MLOAD SWAP2 SWAP6 POP SWAP4 POP SWAP1 POP PUSH1 0x1 PUSH1 0x1 PUSH1 0xA0 SHL SUB DUP2 AND DUP2 EQ PUSH2 0x3DE JUMPI PUSH1 0x0 DUP1 REVERT JUMPDEST SWAP4 SWAP7 SWAP3 SWAP6 POP SWAP1 SWAP4 POP POP JUMP JUMPDEST PUSH1 0x1 DUP2 DUP2 SHR SWAP1 DUP3 AND DUP1 PUSH2 0x3FD JUMPI PUSH1 0x7F DUP3 AND SWAP2 POP JUMPDEST PUSH1 0x20 DUP3 LT DUP2 SUB PUSH2 0x41D JUMPI PUSH4 0x4E487B71 PUSH1 0xE0 SHL PUSH1 0x0 MSTORE PUSH1 0x22 PUSH1 0x4 MSTORE PUSH1 0x24 PUSH1 0x0 REVERT JUMPDEST POP SWAP2 SWAP1 POP JUMP JUMPDEST PUSH1 0x1F DUP3 GT ISZERO PUSH2 0x250 JUMPI DUP1 PUSH1 0x0 MSTORE PUSH1 0x20 PUSH1 0x0 KECCAK256 PUSH1 0x1F DUP5 ADD PUSH1 0x5 SHR DUP2 ADD PUSH1 0x20 DUP6 LT ISZERO PUSH2 0x44A JUMPI POP DUP1 JUMPDEST PUSH1 0x1F DUP5 ADD PUSH1 0x5 SHR DUP3 ADD SWAP2 POP JUMPDEST DUP2 DUP2 LT ISZERO PUSH2 0x46A JUMPI PUSH1 0x0 DUP2 SSTORE PUSH1 0x1 ADD PUSH2 0x456 JUMP JUMPDEST POP POP POP POP POP JUMP JUMPDEST DUP2 MLOAD PUSH1 0x1 PUSH1 0x1 PUSH1 0x40 SHL SUB DUP2 GT ISZERO PUSH2 0x48A JUMPI PUSH2 0x48A PUSH2 0x29D JUMP JUMPDEST PUSH2 0x49E DUP2 PUSH2 0x498 DUP5 SLOAD PUSH2 0x3E9 JUMP JUMPDEST DUP5 PUSH2 0x423 JUMP JUMPDEST PUSH1 0x20 PUSH1 0x1F DUP3 GT PUSH1 0x1 DUP2 EQ PUSH2 0x4D2 JUMPI PUSH1 0x0 DUP4 ISZERO PUSH2 0x4BA JUMPI POP DUP5 DUP3 ADD MLOAD JUMPDEST PUSH1 0x0 NOT PUSH1 0x3 DUP6 SWAP1 SHL SHR NOT AND PUSH1 0x1 DUP5 SWAP1 SHL OR DUP5 SSTORE PUSH2 0x46A JUMP JUMPDEST PUSH1 0x0 DUP5 DUP2 MSTORE PUSH1 0x20 DUP2 KECCAK256 PUSH1 0x1F NOT DUP6 AND SWAP2 JUMPDEST DUP3 DUP2 LT ISZERO PUSH2 0x502 JUMPI DUP8 DUP6 ADD MLOAD DUP3 SSTORE PUSH1 0x20 SWAP5 DUP6 ADD SWAP5 PUSH1 0x1 SWAP1 SWAP3 ADD SWAP2 ADD PUSH2 0x4E2 JUMP JUMPDEST POP DUP5 DUP3 LT ISZERO PUSH2 0x520 JUMPI DUP7 DUP5 ADD MLOAD PUSH1 0x0 NOT PUSH1 0x3 DUP8 SWAP1 SHL PUSH1 0xF8 AND SHR NOT AND DUP2 SSTORE JUMPDEST POP POP POP POP PUSH1 0x1 SWAP1 DUP2 SHL ADD SWAP1 SSTORE POP JUMP JUMPDEST PUSH4 0x4E487B71 PUSH1 0xE0 SHL PUSH1 0x0 MSTORE PUSH1 0x11 PUSH1 0x4 MSTORE PUSH1 0x24 PUSH1 0x0 REVERT JUMPDEST PUSH1 0x1 DUP2 JUMPDEST PUSH1 0x1 DUP5 GT ISZERO PUSH2 0x580 JUMPI DUP1 DUP6 DIV DUP2 GT ISZERO PUSH2 0x564 JUMPI PUSH2 0x564 PUSH2 0x52F JUMP JUMPDEST PUSH1 0x1 DUP5 AND ISZERO PUSH2 0x572 JUMPI SWAP1 DUP2 MUL SWAP1 JUMPDEST PUSH1 0x1 SWAP4 SWAP1 SWAP4 SHR SWAP3 DUP1 MUL PUSH2 0x549 JUMP JUMPDEST SWAP4 POP SWAP4 SWAP2 POP POP JUMP JUMPDEST PUSH1 0x0 DUP3 PUSH2 0x597 JUMPI POP PUSH1 0x1 PUSH2 0x628 JUMP JUMPDEST DUP2 PUSH2 0x5A4 JUMPI POP PUSH1 0x0 PUSH2 0x628 JUMP JUMPDEST DUP2 PUSH1 0x1 DUP2 EQ PUSH2 0x5BA JUMPI PUSH1 0x2 DUP2 EQ PUSH2 0x5C4 JUMPI PUSH2 0x5E0 JUMP JUMPDEST PUSH1 0x1 SWAP2 POP POP PUSH2 0x628 JUMP JUMPDEST PUSH1 0xFF DUP5 GT ISZERO PUSH2 0x5D5 JUMPI PUSH2 0x5D5 PUSH2 0x52F JUMP JUMPDEST POP POP PUSH1 0x1 DUP3 SHL PUSH2 0x628 JUMP JUMPDEST POP PUSH1 0x20 DUP4 LT PUSH2 0x133 DUP4 LT AND PUSH1 0x4E DUP5 LT PUSH1 0xB DUP5 LT AND OR ISZERO PUSH2 0x603 JUMPI POP DUP2 DUP2 EXP PUSH2 0x628 JUMP JUMPDEST PUSH2 0x610 PUSH1 0x0 NOT DUP5 DUP5 PUSH2 0x545 JUMP JUMPDEST DUP1 PUSH1 0x0 NOT DIV DUP3 GT ISZERO PUSH2 0x624 JUMPI PUSH2 0x624 PUSH2 0x52F JUMP JUMPDEST MUL SWAP1 POP JUMPDEST SWAP3 SWAP2 POP POP JUMP JUMPDEST PUSH1 0x0 PUSH2 0x63D PUSH1 0xFF DUP5 AND DUP4 PUSH2 0x588 JUMP JUMPDEST SWAP4 SWAP3 POP POP POP JUMP JUMPDEST DUP1 DUP3 MUL DUP2 ISZERO DUP3 DUP3 DIV DUP5 EQ OR PUSH2 0x628 JUMPI PUSH2 0x628 PUSH2 0x52F JUMP JUMPDEST DUP1 DUP3 ADD DUP1 DUP3 GT ISZERO PUSH2 0x628 JUMPI PUSH2 0x628 PUSH2 0x52F JUMP JUMPDEST PUSH2 0x11D3 DUP1 PUSH2 0x67D PUSH1 0x0 CODECOPY PUSH1 0x0 RETURN INVALID PUSH1 0x80 PUSH1 0x40 MSTORE CALLVALUE DUP1 ISZERO PUSH2 0x10 JUMPI PUSH1 0x0 DUP1 REVERT JUMPDEST POP PUSH1 0x4 CALLDATASIZE LT PUSH2 0x18E JUMPI PUSH1 0x0 CALLDATALOAD PUSH1 0xE0 SHR DUP1 PUSH4 0x79CC6790 GT PUSH2 0xDE JUMPI DUP1 PUSH4 0xA9059CBB GT PUSH2 0x97 JUMPI DUP1 PUSH4 0xDD62ED3E GT PUSH2 0x71 JUMPI DUP1 PUSH4 0xDD62ED3E EQ PUSH2 0x33B JUMPI DUP1 PUSH4 0xE1F1C4A7 EQ PUSH2 0x34E JUMPI DUP1 PUSH4 0xE6EF73D6 EQ PUSH2 0x357 JUMPI DUP1 PUSH4 0xF2FDE38B EQ PUSH2 0x36A JUMPI PUSH1 0x0 DUP1 REVERT JUMPDEST DUP1 PUSH4 0xA9059CBB EQ PUSH2 0x302 JUMPI DUP1 PUSH4 0xBDAB6FC6 EQ PUSH2 0x315 JUMPI DUP1 PUSH4 0xCD8DE42C EQ PUSH2 0x328 JUMPI PUSH1 0x0 DUP1 REVERT JUMPDEST DUP1 PUSH4 0x79CC6790 EQ PUSH2 0x29A JUMPI DUP1 PUSH4 0x83F170BE EQ PUSH2 0x2AD JUMPI DUP1 PUSH4 0x8456CB59 EQ PUSH2 0x2B5 JUMPI DUP1 PUSH4 0x8DA5CB5B EQ PUSH2 0x2BD JUMPI DUP1 PUSH4 0x95D89B41 EQ PUSH2 0x2E7 JUMPI DUP1 PUSH4 0xA457C2D7 EQ PUSH2 0x2EF JUMPI PUSH1 0x0 DUP1 REVERT JUMPDEST DUP1 PUSH4 0x3F4BA83A GT PUSH2 0x14B JUMPI DUP1 PUSH4 0x483A9310 GT PUSH2 0x125 JUMPI DUP1 PUSH4 0x483A9310 EQ PUSH2 0x24B JUMPI DUP1 PUSH4 0x5C975ABB EQ PUSH2 0x25E JUMPI DUP1 PUSH4 0x70A08231 EQ PUSH2 0x269 JUMPI DUP1 PUSH4 0x715018A6 EQ PUSH2 0x292 JUMPI PUSH1 0x0 DUP1 REVERT JUMPDEST DUP1 PUSH4 0x3F4BA83A EQ PUSH2 0x21B JUMPI DUP1 PUSH4 0x40C10F19 EQ PUSH2 0x225 JUMPI DUP1 PUSH4 0x42966C68 EQ PUSH2 0x238 JUMPI PUSH1 0x0 DUP1 REVERT JUMPDEST DUP1 PUSH4 0x6FDDE03 EQ PUSH2 0x193 JUMPI DUP1 PUSH4 0x95EA7B3 EQ PUSH2 0x1B1 JUMPI DUP1 PUSH4 0x18160DDD EQ PUSH2 0x1D4 JUMPI DUP1 PUSH4 0x23B872DD EQ PUSH2 0x1E6 JUMPI DUP1 PUSH4 0x313CE567 EQ PUSH2 0x1F9 JUMPI DUP1 PUSH4 0x39509351 EQ PUSH2 0x208 JUMPI JUMPDEST PUSH1 0x0 DUP1 REVERT JUMPDEST PUSH2 0x19B PUSH2 0x37D JUMP JUMPDEST PUSH1 0x40 MLOAD PUSH2 0x1A8 SWAP2 SWAP1 PUSH2 0xF2E JUMP JUMPDEST PUSH1 0x40 MLOAD DUP1 SWAP2 SUB SWAP1 RETURN JUMPDEST PUSH2 0x1C4 PUSH2 0x1BF CALLDATASIZE PUSH1 0x4 PUSH2 0xF98 JUMP JUMPDEST PUSH2 0x40F JUMP JUMPDEST PUSH1 0x40 MLOAD SWAP1 ISZERO ISZERO DUP2 MSTORE PUSH1 0x20 ADD PUSH2 0x1A8 JUMP JUMPDEST PUSH1 0x2 SLOAD JUMPDEST PUSH1 0x40 MLOAD SWAP1 DUP2 MSTORE PUSH1 0x20 ADD PUSH2 0x1A8 JUMP JUMPDEST PUSH2 0x1C4 PUSH2 0x1F4 CALLDATASIZE PUSH1 0x4 PUSH2 0xFC2 JUMP JUMPDEST PUSH2 0x429 JUMP JUMPDEST PUSH1 0x40 MLOAD PUSH1 0x12 DUP2 MSTORE PUSH1 0x20 ADD PUSH2 0x1A8 JUMP JUMPDEST PUSH2 0x1C4 PUSH2 0x216 CALLDATASIZE PUSH1 0x4 PUSH2 0xF98 JUMP JUMPDEST PUSH2 0x455 JUMP JUMPDEST PUSH2 0x223 PUSH2 0x477 JUMP JUMPDEST STOP JUMPDEST PUSH2 0x223 PUSH2 0x233 CALLDATASIZE PUSH1 0x4 PUSH2 0xF98 JUMP JUMPDEST PUSH2 0x489 JUMP JUMPDEST PUSH2 0x223 PUSH2 0x246 CALLDATASIZE PUSH1 0x4 PUSH2 0xFFF JUMP JUMPDEST PUSH2 0x49F JUMP JUMPDEST PUSH2 0x1D8 PUSH2 0x259 CALLDATASIZE PUSH1 0x4 PUSH2 0xFFF JUMP JUMPDEST PUSH2 0x4AC JUMP JUMPDEST PUSH1 0x5 SLOAD PUSH1 0xFF AND PUSH2 0x1C4 JUMP JUMPDEST PUSH2 0x1D8 PUSH2 0x277 CALLDATASIZE PUSH1 0x4 PUSH2 0x1018 JUMP JUMPDEST PUSH1 0x1 PUSH1 0x1 PUSH1 0xA0 SHL SUB AND PUSH1 0x0 SWAP1 DUP2 MSTORE PUSH1 0x20 DUP2 SWAP1 MSTORE PUSH1 0x40 SWAP1 KECCAK256 SLOAD SWAP1 JUMP JUMPDEST PUSH2 0x223 PUSH2 0x4C6 JUMP JUMPDEST PUSH2 0x223 PUSH2 0x2A8 CALLDATASIZE PUSH1 0x4 PUSH2 0xF98 JUMP JUMPDEST PUSH2 0x4D8 JUMP JUMPDEST PUSH2 0x1D8 PUSH1 0x64 DUP2 JUMP JUMPDEST PUSH2 0x223 PUSH2 0x4ED JUMP JUMPDEST PUSH1 0x5 SLOAD PUSH2 0x100 SWAP1 DIV PUSH1 0x1 PUSH1 0x1 PUSH1 0xA0 SHL SUB AND JUMPDEST PUSH1 0x40 MLOAD PUSH1 0x1 PUSH1 0x1 PUSH1 0xA0 SHL SUB SWAP1 SWAP2 AND DUP2 MSTORE PUSH1 0x20 ADD PUSH2 0x1A8 JUMP JUMPDEST PUSH2 0x19B PUSH2 0x4FD JUMP JUMPDEST PUSH2 0x1C4 PUSH2 0x2FD CALLDATASIZE PUSH1 0x4 PUSH2 0xF98 JUMP JUMPDEST PUSH2 0x50C JUMP JUMPDEST PUSH2 0x1C4 PUSH2 0x310 CALLDATASIZE PUSH1 0x4 PUSH2 0xF98 JUMP JUMPDEST PUSH2 0x58C JUMP JUMPDEST PUSH2 0x1D8 PUSH2 0x323 CALLDATASIZE PUSH1 0x4 PUSH2 0xFFF JUMP JUMPDEST PUSH2 0x5A2 JUMP JUMPDEST PUSH2 0x223 PUSH2 0x336 CALLDATASIZE PUSH1 0x4 PUSH2 0x1018 JUMP JUMPDEST PUSH2 0x5C1 JUMP JUMPDEST PUSH2 0x1D8 PUSH2 0x349 CALLDATASIZE PUSH1 0x4 PUSH2 0x1033 JUMP JUMPDEST PUSH2 0x67D JUMP JUMPDEST PUSH2 0x1D8 PUSH2 0x2710 DUP2 JUMP JUMPDEST PUSH1 0x6 SLOAD PUSH2 0x2CF SWAP1 PUSH1 0x1 PUSH1 0x1 PUSH1 0xA0 SHL SUB AND DUP2 JUMP JUMPDEST PUSH2 0x223 PUSH2 0x378 CALLDATASIZE PUSH1 0x4 PUSH2 0x1018 JUMP JUMPDEST PUSH2 0x6A8 JUMP JUMPDEST PUSH1 0x60 PUSH1 0x3 DUP1 SLOAD PUSH2 0x38C SWAP1 PUSH2 0x1066 JUMP JUMPDEST DUP1 PUSH1 0x1F ADD PUSH1 0x20 DUP1 SWAP2 DIV MUL PUSH1 0x20 ADD PUSH1 0x40 MLOAD SWAP1 DUP2 ADD PUSH1 0x40 MSTORE DUP1 SWAP3 SWAP2 SWAP1 DUP2 DUP2 MSTORE PUSH1 0x20 ADD DUP3 DUP1 SLOAD PUSH2 0x3B8 SWAP1 PUSH2 0x1066 JUMP JUMPDEST DUP1 ISZERO PUSH2 0x405 JUMPI DUP1 PUSH1 0x1F LT PUSH2 0x3DA JUMPI PUSH2 0x100 DUP1 DUP4 SLOAD DIV MUL DUP4 MSTORE SWAP2 PUSH1 0x20 ADD SWAP2 PUSH2 0x405 JUMP JUMPDEST DUP3 ADD SWAP2 SWAP1 PUSH1 0x0 MSTORE PUSH1 0x20 PUSH1 0x0 KECCAK256 SWAP1 JUMPDEST DUP2 SLOAD DUP2 MSTORE SWAP1 PUSH1 0x1 ADD SWAP1 PUSH1 0x20 ADD DUP1 DUP4 GT PUSH2 0x3E8 JUMPI DUP3 SWAP1 SUB PUSH1 0x1F AND DUP3 ADD SWAP2 JUMPDEST POP POP POP POP POP SWAP1 POP SWAP1 JUMP JUMPDEST PUSH1 0x0 CALLER PUSH2 0x41D DUP2 DUP6 DUP6 PUSH2 0x71E JUMP JUMPDEST PUSH1 0x1 SWAP2 POP POP JUMPDEST SWAP3 SWAP2 POP POP JUMP JUMPDEST PUSH1 0x0 PUSH2 0x433 PUSH2 0x842 JUMP JUMPDEST CALLER PUSH2 0x43F DUP6 DUP3 DUP6 PUSH2 0x888 JUMP JUMPDEST PUSH2 0x44A DUP6 DUP6 DUP6 PUSH2 0x902 JUMP JUMPDEST POP PUSH1 0x1 SWAP5 SWAP4 POP POP POP POP JUMP JUMPDEST PUSH1 0x0 CALLER PUSH2 0x41D DUP2 DUP6 DUP6 PUSH2 0x468 DUP4 DUP4 PUSH2 0x67D JUMP JUMPDEST PUSH2 0x472 SWAP2 SWAP1 PUSH2 0x10B6 JUMP JUMPDEST PUSH2 0x71E JUMP JUMPDEST PUSH2 0x47F PUSH2 0xA56 JUMP JUMPDEST PUSH2 0x487 PUSH2 0xAB6 JUMP JUMPDEST JUMP JUMPDEST PUSH2 0x491 PUSH2 0xA56 JUMP JUMPDEST PUSH2 0x49B DUP3 DUP3 PUSH2 0xB08 JUMP JUMPDEST POP POP JUMP JUMPDEST PUSH2 0x4A9 CALLER DUP3 PUSH2 0xBD3 JUMP JUMPDEST POP JUMP JUMPDEST PUSH1 0x0 PUSH2 0x2710 PUSH2 0x4BC PUSH1 0x64 DUP5 PUSH2 0x10C9 JUMP JUMPDEST PUSH2 0x423 SWAP2 SWAP1 PUSH2 0x10E0 JUMP JUMPDEST PUSH2 0x4CE PUSH2 0xA56 JUMP JUMPDEST PUSH2 0x487 PUSH1 0x0 PUSH2 0xD11 JUMP JUMPDEST PUSH2 0x4E3 DUP3 CALLER DUP4 PUSH2 0x888 JUMP JUMPDEST PUSH2 0x49B DUP3 DUP3 PUSH2 0xBD3 JUMP JUMPDEST PUSH2 0x4F5 PUSH2 0xA56 JUMP JUMPDEST PUSH2 0x487 PUSH2 0xD6B JUMP JUMPDEST PUSH1 0x60 PUSH1 0x4 DUP1 SLOAD PUSH2 0x38C SWAP1 PUSH2 0x1066 JUMP JUMPDEST PUSH1 0x0 CALLER DUP2 PUSH2 0x51A DUP3 DUP7 PUSH2 0x67D JUMP JUMPDEST SWAP1 POP DUP4 DUP2 LT ISZERO PUSH2 0x57F JUMPI PUSH1 0x40 MLOAD PUSH3 0x461BCD PUSH1 0xE5 SHL DUP2 MSTORE PUSH1 0x20 PUSH1 0x4 DUP3 ADD MSTORE PUSH1 0x25 PUSH1 0x24 DUP3 ADD MSTORE PUSH32 0x45524332303A2064656372656173656420616C6C6F77616E63652062656C6F77 PUSH1 0x44 DUP3 ADD MSTORE PUSH5 0x207A65726F PUSH1 0xD8 SHL PUSH1 0x64 DUP3 ADD MSTORE PUSH1 0x84 ADD JUMPDEST PUSH1 0x40 MLOAD DUP1 SWAP2 SUB SWAP1 REVERT JUMPDEST PUSH2 0x44A DUP3 DUP7 DUP7 DUP5 SUB PUSH2 0x71E JUMP JUMPDEST PUSH1 0x0 PUSH2 0x596 PUSH2 0x842 JUMP JUMPDEST CALLER PUSH2 0x41D DUP2 DUP6 DUP6 PUSH2 0x902 JUMP JUMPDEST PUSH1 0x0 DUP1 PUSH2 0x5AE DUP4 PUSH2 0x4AC JUMP JUMPDEST SWAP1 POP PUSH2 0x5BA DUP2 DUP5 PUSH2 0x1102 JUMP JUMPDEST SWAP4 SWAP3 POP POP POP JUMP JUMPDEST PUSH2 0x5C9 PUSH2 0xA56 JUMP JUMPDEST PUSH1 0x1 PUSH1 0x1 PUSH1 0xA0 SHL SUB DUP2 AND PUSH2 0x62B JUMPI PUSH1 0x40 MLOAD PUSH3 0x461BCD PUSH1 0xE5 SHL DUP2 MSTORE PUSH1 0x20 PUSH1 0x4 DUP3 ADD MSTORE PUSH1 0x23 PUSH1 0x24 DUP3 ADD MSTORE PUSH32 0x5461782072656365697665722063616E6E6F74206265207A65726F2061646472 PUSH1 0x44 DUP3 ADD MSTORE PUSH3 0x657373 PUSH1 0xE8 SHL PUSH1 0x64 DUP3 ADD MSTORE PUSH1 0x84 ADD PUSH2 0x576 JUMP JUMPDEST PUSH1 0x6 DUP1 SLOAD PUSH1 0x1 PUSH1 0x1 PUSH1 0xA0 SHL SUB DUP4 DUP2 AND PUSH1 0x1 PUSH1 0x1 PUSH1 0xA0 SHL SUB NOT DUP4 AND DUP2 OR SWAP1 SWAP4 SSTORE PUSH1 0x40 MLOAD SWAP2 AND SWAP2 SWAP1 DUP3 SWAP1 PUSH32 0xF970BC488F38CDC7CAF559DE1924E9C564D90C54D1767C82DF2CBC55C9829A5E SWAP1 PUSH1 0x0 SWAP1 LOG3 POP POP JUMP JUMPDEST PUSH1 0x1 PUSH1 0x1 PUSH1 0xA0 SHL SUB SWAP2 DUP3 AND PUSH1 0x0 SWAP1 DUP2 MSTORE PUSH1 0x1 PUSH1 0x20 SWAP1 DUP2 MSTORE PUSH1 0x40 DUP1 DUP4 KECCAK256 SWAP4 SWAP1 SWAP5 AND DUP3 MSTORE SWAP2 SWAP1 SWAP2 MSTORE KECCAK256 SLOAD SWAP1 JUMP JUMPDEST PUSH2 0x6B0 PUSH2 0xA56 JUMP JUMPDEST PUSH1 0x1 PUSH1 0x1 PUSH1 0xA0 SHL SUB DUP2 AND PUSH2 0x715 JUMPI PUSH1 0x40 MLOAD PUSH3 0x461BCD PUSH1 0xE5 SHL DUP2 MSTORE PUSH1 0x20 PUSH1 0x4 DUP3 ADD MSTORE PUSH1 0x26 PUSH1 0x24 DUP3 ADD MSTORE PUSH32 0x4F776E61626C653A206E6577206F776E657220697320746865207A65726F2061 PUSH1 0x44 DUP3 ADD MSTORE PUSH6 0x646472657373 PUSH1 0xD0 SHL PUSH1 0x64 DUP3 ADD MSTORE PUSH1 0x84 ADD PUSH2 0x576 JUMP JUMPDEST PUSH2 0x4A9 DUP2 PUSH2 0xD11 JUMP JUMPDEST PUSH1 0x1 PUSH1 0x1 PUSH1 0xA0 SHL SUB DUP4 AND PUSH2 0x780 JUMPI PUSH1 0x40 MLOAD PUSH3 0x461BCD PUSH1 0xE5 SHL DUP2 MSTORE PUSH1 0x20 PUSH1 0x4 DUP3 ADD MSTORE PUSH1 0x24 DUP1 DUP3 ADD MSTORE PUSH32 0x45524332303A20617070726F76652066726F6D20746865207A65726F20616464 PUSH1 0x44 DUP3 ADD MSTORE PUSH4 0x72657373 PUSH1 0xE0 SHL PUSH1 0x64 DUP3 ADD MSTORE PUSH1 0x84 ADD PUSH2 0x576 JUMP JUMPDEST PUSH1 0x1 PUSH1 0x1 PUSH1 0xA0 SHL SUB DUP3 AND PUSH2 0x7E1 JUMPI PUSH1 0x40 MLOAD PUSH3 0x461BCD PUSH1 0xE5 SHL DUP2 MSTORE PUSH1 0x20 PUSH1 0x4 DUP3 ADD MSTORE PUSH1 0x22 PUSH1 0x24 DUP3 ADD MSTORE PUSH32 0x45524332303A20617070726F766520746F20746865207A65726F206164647265 PUSH1 0x44 DUP3 ADD MSTORE PUSH2 0x7373 PUSH1 0xF0 SHL PUSH1 0x64 DUP3 ADD MSTORE PUSH1 0x84 ADD PUSH2 0x576 JUMP JUMPDEST PUSH1 0x1 PUSH1 0x1 PUSH1 0xA0 SHL SUB DUP4 DUP2 AND PUSH1 0x0 DUP2 DUP2 MSTORE PUSH1 0x1 PUSH1 0x20 SWAP1 DUP2 MSTORE PUSH1 0x40 DUP1 DUP4 KECCAK256 SWAP5 DUP8 AND DUP1 DUP5 MSTORE SWAP5 DUP3 MSTORE SWAP2 DUP3 SWAP1 KECCAK256 DUP6 SWAP1 SSTORE SWAP1 MLOAD DUP5 DUP2 MSTORE PUSH32 0x8C5BE1E5EBEC7D5BD14F71427D1E84F3DD0314C0F7B2291E5B200AC8C7C3B925 SWAP2 ADD PUSH1 0x40 MLOAD DUP1 SWAP2 SUB SWAP1 LOG3 POP POP POP JUMP JUMPDEST PUSH1 0x5 SLOAD PUSH1 0xFF AND ISZERO PUSH2 0x487 JUMPI PUSH1 0x40 MLOAD PUSH3 0x461BCD PUSH1 0xE5 SHL DUP2 MSTORE PUSH1 0x20 PUSH1 0x4 DUP3 ADD MSTORE PUSH1 0x10 PUSH1 0x24 DUP3 ADD MSTORE PUSH16 0x14185D5CD8589B194E881C185D5CD959 PUSH1 0x82 SHL PUSH1 0x44 DUP3 ADD MSTORE PUSH1 0x64 ADD PUSH2 0x576 JUMP JUMPDEST PUSH1 0x0 PUSH2 0x894 DUP5 DUP5 PUSH2 0x67D JUMP JUMPDEST SWAP1 POP PUSH1 0x0 NOT DUP2 EQ PUSH2 0x8FC JUMPI DUP2 DUP2 LT ISZERO PUSH2 0x8EF JUMPI PUSH1 0x40 MLOAD PUSH3 0x461BCD PUSH1 0xE5 SHL DUP2 MSTORE PUSH1 0x20 PUSH1 0x4 DUP3 ADD MSTORE PUSH1 0x1D PUSH1 0x24 DUP3 ADD MSTORE PUSH32 0x45524332303A20696E73756666696369656E7420616C6C6F77616E6365000000 PUSH1 0x44 DUP3 ADD MSTORE PUSH1 0x64 ADD PUSH2 0x576 JUMP JUMPDEST PUSH2 0x8FC DUP5 DUP5 DUP5 DUP5 SUB PUSH2 0x71E JUMP JUMPDEST POP POP POP POP JUMP JUMPDEST PUSH1 0x1 PUSH1 0x1 PUSH1 0xA0 SHL SUB DUP4 AND PUSH2 0x928 JUMPI PUSH1 0x40 MLOAD PUSH3 0x461BCD PUSH1 0xE5 SHL DUP2 MSTORE PUSH1 0x4 ADD PUSH2 0x576 SWAP1 PUSH2 0x1115 JUMP JUMPDEST PUSH1 0x1 PUSH1 0x1 PUSH1 0xA0 SHL SUB DUP3 AND PUSH2 0x94E JUMPI PUSH1 0x40 MLOAD PUSH3 0x461BCD PUSH1 0xE5 SHL DUP2 MSTORE PUSH1 0x4 ADD PUSH2 0x576 SWAP1 PUSH2 0x115A JUMP JUMPDEST PUSH1 0x5 SLOAD PUSH1 0x1 PUSH1 0x1 PUSH1 0xA0 SHL SUB DUP5 DUP2 AND PUSH2 0x100 SWAP1 SWAP3 DIV AND EQ DUP1 PUSH2 0x981 JUMPI POP PUSH1 0x5 SLOAD PUSH1 0x1 PUSH1 0x1 PUSH1 0xA0 SHL SUB DUP4 DUP2 AND PUSH2 0x100 SWAP1 SWAP3 DIV AND EQ JUMPDEST DUP1 PUSH2 0x999 JUMPI POP PUSH1 0x6 SLOAD PUSH1 0x1 PUSH1 0x1 PUSH1 0xA0 SHL SUB DUP5 DUP2 AND SWAP2 AND EQ JUMPDEST ISZERO PUSH2 0x9AE JUMPI PUSH2 0x9A9 DUP4 DUP4 DUP4 PUSH2 0xDA8 JUMP JUMPDEST POP POP POP JUMP JUMPDEST PUSH1 0x0 PUSH2 0x2710 PUSH2 0x9BE PUSH1 0x64 DUP5 PUSH2 0x10C9 JUMP JUMPDEST PUSH2 0x9C8 SWAP2 SWAP1 PUSH2 0x10E0 JUMP JUMPDEST SWAP1 POP PUSH1 0x0 PUSH2 0x9D6 DUP3 DUP5 PUSH2 0x1102 JUMP JUMPDEST SWAP1 POP PUSH2 0x9E3 DUP6 DUP6 DUP4 PUSH2 0xDA8 JUMP JUMPDEST DUP2 ISZERO PUSH2 0xA4F JUMPI PUSH1 0x6 SLOAD PUSH2 0xA01 SWAP1 DUP7 SWAP1 PUSH1 0x1 PUSH1 0x1 PUSH1 0xA0 SHL SUB AND DUP5 PUSH2 0xDA8 JUMP JUMPDEST DUP4 PUSH1 0x1 PUSH1 0x1 PUSH1 0xA0 SHL SUB AND DUP6 PUSH1 0x1 PUSH1 0x1 PUSH1 0xA0 SHL SUB AND PUSH32 0x5D37FD68FE66745A199F8C603E00AE02183F4AABB8EC0089589B0B40C4EAD5E1 DUP5 PUSH1 0x40 MLOAD PUSH2 0xA46 SWAP2 DUP2 MSTORE PUSH1 0x20 ADD SWAP1 JUMP JUMPDEST PUSH1 0x40 MLOAD DUP1 SWAP2 SUB SWAP1 LOG3 JUMPDEST POP POP POP POP POP JUMP JUMPDEST PUSH1 0x5 SLOAD PUSH1 0x1 PUSH1 0x1 PUSH1 0xA0 SHL SUB PUSH2 0x100 SWAP1 SWAP2 DIV AND CALLER EQ PUSH2 0x487 JUMPI PUSH1 0x40 MLOAD PUSH3 0x461BCD PUSH1 0xE5 SHL DUP2 MSTORE PUSH1 0x20 PUSH1 0x4 DUP3 ADD DUP2 SWAP1 MSTORE PUSH1 0x24 DUP3 ADD MSTORE PUSH32 0x4F776E61626C653A2063616C6C6572206973206E6F7420746865206F776E6572 PUSH1 0x44 DUP3 ADD MSTORE PUSH1 0x64 ADD PUSH2 0x576 JUMP JUMPDEST PUSH2 0xABE PUSH2 0xEDD JUMP JUMPDEST PUSH1 0x5 DUP1 SLOAD PUSH1 0xFF NOT AND SWAP1 SSTORE PUSH32 0x5DB9EE0A495BF2E6FF9C91A7834C1BA4FDD244A5E8AA4E537BD38AEAE4B073AA CALLER JUMPDEST PUSH1 0x40 MLOAD PUSH1 0x1 PUSH1 0x1 PUSH1 0xA0 SHL SUB SWAP1 SWAP2 AND DUP2 MSTORE PUSH1 0x20 ADD PUSH1 0x40 MLOAD DUP1 SWAP2 SUB SWAP1 LOG1 JUMP JUMPDEST PUSH1 0x1 PUSH1 0x1 PUSH1 0xA0 SHL SUB DUP3 AND PUSH2 0xB5E JUMPI PUSH1 0x40 MLOAD PUSH3 0x461BCD PUSH1 0xE5 SHL DUP2 MSTORE PUSH1 0x20 PUSH1 0x4 DUP3 ADD MSTORE PUSH1 0x1F PUSH1 0x24 DUP3 ADD MSTORE PUSH32 0x45524332303A206D696E7420746F20746865207A65726F206164647265737300 PUSH1 0x44 DUP3 ADD MSTORE PUSH1 0x64 ADD PUSH2 0x576 JUMP JUMPDEST PUSH2 0xB6A PUSH1 0x0 DUP4 DUP4 PUSH2 0xF26 JUMP JUMPDEST DUP1 PUSH1 0x2 PUSH1 0x0 DUP3 DUP3 SLOAD PUSH2 0xB7C SWAP2 SWAP1 PUSH2 0x10B6 JUMP JUMPDEST SWAP1 SWAP2 SSTORE POP POP PUSH1 0x1 PUSH1 0x1 PUSH1 0xA0 SHL SUB DUP3 AND PUSH1 0x0 DUP2 DUP2 MSTORE PUSH1 0x20 DUP2 DUP2 MSTORE PUSH1 0x40 DUP1 DUP4 KECCAK256 DUP1 SLOAD DUP7 ADD SWAP1 SSTORE MLOAD DUP5 DUP2 MSTORE PUSH32 0xDDF252AD1BE2C89B69C2B068FC378DAA952BA7F163C4A11628F55A4DF523B3EF SWAP2 ADD PUSH1 0x40 MLOAD DUP1 SWAP2 SUB SWAP1 LOG3 POP POP JUMP JUMPDEST PUSH1 0x1 PUSH1 0x1 PUSH1 0xA0 SHL SUB DUP3 AND PUSH2 0xC33 JUMPI PUSH1 0x40 MLOAD PUSH3 0x461BCD PUSH1 0xE5 SHL DUP2 MSTORE PUSH1 0x20 PUSH1 0x4 DUP3 ADD MSTORE PUSH1 0x21 PUSH1 0x24 DUP3 ADD MSTORE PUSH32 0x45524332303A206275726E2066726F6D20746865207A65726F20616464726573 PUSH1 0x44 DUP3 ADD MSTORE PUSH1 0x73 PUSH1 0xF8 SHL PUSH1 0x64 DUP3 ADD MSTORE PUSH1 0x84 ADD PUSH2 0x576 JUMP JUMPDEST PUSH2 0xC3F DUP3 PUSH1 0x0 DUP4 PUSH2 0xF26 JUMP JUMPDEST PUSH1 0x1 PUSH1 0x1 PUSH1 0xA0 SHL SUB DUP3 AND PUSH1 0x0 SWAP1 DUP2 MSTORE PUSH1 0x20 DUP2 SWAP1 MSTORE PUSH1 0x40 SWAP1 KECCAK256 SLOAD DUP2 DUP2 LT ISZERO PUSH2 0xCB3 JUMPI PUSH1 0x40 MLOAD PUSH3 0x461BCD PUSH1 0xE5 SHL DUP2 MSTORE PUSH1 0x20 PUSH1 0x4 DUP3 ADD MSTORE PUSH1 0x22 PUSH1 0x24 DUP3 ADD MSTORE PUSH32 0x45524332303A206275726E20616D6F756E7420657863656564732062616C616E PUSH1 0x44 DUP3 ADD MSTORE PUSH2 0x6365 PUSH1 0xF0 SHL PUSH1 0x64 DUP3 ADD MSTORE PUSH1 0x84 ADD PUSH2 0x576 JUMP JUMPDEST PUSH1 0x1 PUSH1 0x1 PUSH1 0xA0 SHL SUB DUP4 AND PUSH1 0x0 DUP2 DUP2 MSTORE PUSH1 0x20 DUP2 DUP2 MSTORE PUSH1 0x40 DUP1 DUP4 KECCAK256 DUP7 DUP7 SUB SWAP1 SSTORE PUSH1 0x2 DUP1 SLOAD DUP8 SWAP1 SUB SWAP1 SSTORE MLOAD DUP6 DUP2 MSTORE SWAP2 SWAP3 SWAP2 PUSH32 0xDDF252AD1BE2C89B69C2B068FC378DAA952BA7F163C4A11628F55A4DF523B3EF SWAP2 ADD PUSH1 0x40 MLOAD DUP1 SWAP2 SUB SWAP1 LOG3 POP POP POP JUMP JUMPDEST PUSH1 0x5 DUP1 SLOAD PUSH1 0x1 PUSH1 0x1 PUSH1 0xA0 SHL SUB DUP4 DUP2 AND PUSH2 0x100 DUP2 DUP2 MUL PUSH2 0x100 PUSH1 0x1 PUSH1 0xA8 SHL SUB NOT DUP6 AND OR SWAP1 SWAP5 SSTORE PUSH1 0x40 MLOAD SWAP4 SWAP1 SWAP3 DIV AND SWAP2 DUP3 SWAP1 PUSH32 0x8BE0079C531659141344CD1FD0A4F28419497F9722A3DAAFE3B4186F6B6457E0 SWAP1 PUSH1 0x0 SWAP1 LOG3 POP POP JUMP JUMPDEST PUSH2 0xD73 PUSH2 0x842 JUMP JUMPDEST PUSH1 0x5 DUP1 SLOAD PUSH1 0xFF NOT AND PUSH1 0x1 OR SWAP1 SSTORE PUSH32 0x62E78CEA01BEE320CD4E420270B5EA74000D11B0C9F74754EBDBFC544B05A258 PUSH2 0xAEB CALLER SWAP1 JUMP JUMPDEST PUSH1 0x1 PUSH1 0x1 PUSH1 0xA0 SHL SUB DUP4 AND PUSH2 0xDCE JUMPI PUSH1 0x40 MLOAD PUSH3 0x461BCD PUSH1 0xE5 SHL DUP2 MSTORE PUSH1 0x4 ADD PUSH2 0x576 SWAP1 PUSH2 0x1115 JUMP JUMPDEST PUSH1 0x1 PUSH1 0x1 PUSH1 0xA0 SHL SUB DUP3 AND PUSH2 0xDF4 JUMPI PUSH1 0x40 MLOAD PUSH3 0x461BCD PUSH1 0xE5 SHL DUP2 MSTORE PUSH1 0x4 ADD PUSH2 0x576 SWAP1 PUSH2 0x115A JUMP JUMPDEST PUSH2 0xDFF DUP4 DUP4 DUP4 PUSH2 0xF26 JUMP JUMPDEST PUSH1 0x1 PUSH1 0x1 PUSH1 0xA0 SHL SUB DUP4 AND PUSH1 0x0 SWAP1 DUP2 MSTORE PUSH1 0x20 DUP2 SWAP1 MSTORE PUSH1 0x40 SWAP1 KECCAK256 SLOAD DUP2 DUP2 LT ISZERO PUSH2 0xE77 JUMPI PUSH1 0x40 MLOAD PUSH3 0x461BCD PUSH1 0xE5 SHL DUP2 MSTORE PUSH1 0x20 PUSH1 0x4 DUP3 ADD MSTORE PUSH1 0x26 PUSH1 0x24 DUP3 ADD MSTORE PUSH32 0x45524332303A207472616E7366657220616D6F756E7420657863656564732062 PUSH1 0x44 DUP3 ADD MSTORE PUSH6 0x616C616E6365 PUSH1 0xD0 SHL PUSH1 0x64 DUP3 ADD MSTORE PUSH1 0x84 ADD PUSH2 0x576 JUMP JUMPDEST PUSH1 0x1 PUSH1 0x1 PUSH1 0xA0 SHL SUB DUP5 DUP2 AND PUSH1 0x0 DUP2 DUP2 MSTORE PUSH1 0x20 DUP2 DUP2 MSTORE PUSH1 0x40 DUP1 DUP4 KECCAK256 DUP8 DUP8 SUB SWAP1 SSTORE SWAP4 DUP8 AND DUP1 DUP4 MSTORE SWAP2 DUP5 SWAP1 KECCAK256 DUP1 SLOAD DUP8 ADD SWAP1 SSTORE SWAP3 MLOAD DUP6 DUP2 MSTORE SWAP1 SWAP3 PUSH32 0xDDF252AD1BE2C89B69C2B068FC378DAA952BA7F163C4A11628F55A4DF523B3EF SWAP2 ADD PUSH1 0x40 MLOAD DUP1 SWAP2 SUB SWAP1 LOG3 PUSH2 0x8FC JUMP JUMPDEST PUSH1 0x5 SLOAD PUSH1 0xFF AND PUSH2 0x487 JUMPI PUSH1 0x40 MLOAD PUSH3 0x461BCD PUSH1 0xE5 SHL DUP2 MSTORE PUSH1 0x20 PUSH1 0x4 DUP3 ADD MSTORE PUSH1 0x14 PUSH1 0x24 DUP3 ADD MSTORE PUSH20 0x14185D5CD8589B194E881B9BDD081C185D5CD959 PUSH1 0x62 SHL PUSH1 0x44 DUP3 ADD MSTORE PUSH1 0x64 ADD PUSH2 0x576 JUMP JUMPDEST PUSH2 0x9A9 PUSH2 0x842 JUMP JUMPDEST PUSH1 0x20 DUP2 MSTORE PUSH1 0x0 DUP3 MLOAD DUP1 PUSH1 0x20 DUP5 ADD MSTORE PUSH1 0x0 JUMPDEST DUP2 DUP2 LT ISZERO PUSH2 0xF5C JUMPI PUSH1 0x20 DUP2 DUP7 ADD DUP2 ADD MLOAD PUSH1 0x40 DUP7 DUP5 ADD ADD MSTORE ADD PUSH2 0xF3F JUMP JUMPDEST POP PUSH1 0x0 PUSH1 0x40 DUP3 DUP6 ADD ADD MSTORE PUSH1 0x40 PUSH1 0x1F NOT PUSH1 0x1F DUP4 ADD AND DUP5 ADD ADD SWAP2 POP POP SWAP3 SWAP2 POP POP JUMP JUMPDEST DUP1 CALLDATALOAD PUSH1 0x1 PUSH1 0x1 PUSH1 0xA0 SHL SUB DUP2 AND DUP2 EQ PUSH2 0xF93 JUMPI PUSH1 0x0 DUP1 REVERT JUMPDEST SWAP2 SWAP1 POP JUMP JUMPDEST PUSH1 0x0 DUP1 PUSH1 0x40 DUP4 DUP6 SUB SLT ISZERO PUSH2 0xFAB JUMPI PUSH1 0x0 DUP1 REVERT JUMPDEST PUSH2 0xFB4 DUP4 PUSH2 0xF7C JUMP JUMPDEST SWAP5 PUSH1 0x20 SWAP4 SWAP1 SWAP4 ADD CALLDATALOAD SWAP4 POP POP POP JUMP JUMPDEST PUSH1 0x0 DUP1 PUSH1 0x0 PUSH1 0x60 DUP5 DUP7 SUB SLT ISZERO PUSH2 0xFD7 JUMPI PUSH1 0x0 DUP1 REVERT JUMPDEST PUSH2 0xFE0 DUP5 PUSH2 0xF7C JUMP JUMPDEST SWAP3 POP PUSH2 0xFEE PUSH1 0x20 DUP6 ADD PUSH2 0xF7C JUMP JUMPDEST SWAP3 SWAP6 SWAP3 SWAP5 POP POP POP PUSH1 0x40 SWAP2 SWAP1 SWAP2 ADD CALLDATALOAD SWAP1 JUMP JUMPDEST PUSH1 0x0 PUSH1 0x20 DUP3 DUP5 SUB SLT ISZERO PUSH2 0x1011 JUMPI PUSH1 0x0 DUP1 REVERT JUMPDEST POP CALLDATALOAD SWAP2 SWAP1 POP JUMP JUMPDEST PUSH1 0x0 PUSH1 0x20 DUP3 DUP5 SUB SLT ISZERO PUSH2 0x102A JUMPI PUSH1 0x0 DUP1 REVERT JUMPDEST PUSH2 0x5BA DUP3 PUSH2 0xF7C JUMP JUMPDEST PUSH1 0x0 DUP1 PUSH1 0x40 DUP4 DUP6 SUB SLT ISZERO PUSH2 0x1046 JUMPI PUSH1 0x0 DUP1 REVERT JUMPDEST PUSH2 0x104F DUP4 PUSH2 0xF7C JUMP JUMPDEST SWAP2 POP PUSH2 0x105D PUSH1 0x20 DUP5 ADD PUSH2 0xF7C JUMP JUMPDEST SWAP1 POP SWAP3 POP SWAP3 SWAP1 POP JUMP JUMPDEST PUSH1 0x1 DUP2 DUP2 SHR SWAP1 DUP3 AND DUP1 PUSH2 0x107A JUMPI PUSH1 0x7F DUP3 AND SWAP2 POP JUMPDEST PUSH1 0x20 DUP3 LT DUP2 SUB PUSH2 0x109A JUMPI PUSH4 0x4E487B71 PUSH1 0xE0 SHL PUSH1 0x0 MSTORE PUSH1 0x22 PUSH1 0x4 MSTORE PUSH1 0x24 PUSH1 0x0 REVERT JUMPDEST POP SWAP2 SWAP1 POP JUMP JUMPDEST PUSH4 0x4E487B71 PUSH1 0xE0 SHL PUSH1 0x0 MSTORE PUSH1 0x11 PUSH1 0x4 MSTORE PUSH1 0x24 PUSH1 0x0 REVERT JUMPDEST DUP1 DUP3 ADD DUP1 DUP3 GT ISZERO PUSH2 0x423 JUMPI PUSH2 0x423 PUSH2 0x10A0 JUMP JUMPDEST DUP1 DUP3 MUL DUP2 ISZERO DUP3 DUP3 DIV DUP5 EQ OR PUSH2 0x423 JUMPI PUSH2 0x423 PUSH2 0x10A0 JUMP JUMPDEST PUSH1 0x0 DUP3 PUSH2 0x10FD JUMPI PUSH4 0x4E487B71 PUSH1 0xE0 SHL PUSH1 0x0 MSTORE PUSH1 0x12 PUSH1 0x4 MSTORE PUSH1 0x24 PUSH1 0x0 REVERT JUMPDEST POP DIV SWAP1 JUMP JUMPDEST DUP2 DUP2 SUB DUP2 DUP2 GT ISZERO PUSH2 0x423 JUMPI PUSH2 0x423 PUSH2 0x10A0 JUMP JUMPDEST PUSH1 0x20 DUP1 DUP3 MSTORE PUSH1 0x25 SWAP1 DUP3 ADD MSTORE PUSH32 0x45524332303A207472616E736665722066726F6D20746865207A65726F206164 PUSH1 0x40 DUP3 ADD MSTORE PUSH5 0x6472657373 PUSH1 0xD8 SHL PUSH1 0x60 DUP3 ADD MSTORE PUSH1 0x80 ADD SWAP1 JUMP JUMPDEST PUSH1 0x20 DUP1 DUP3 MSTORE PUSH1 0x23 SWAP1 DUP3 ADD MSTORE PUSH32 0x45524332303A207472616E7366657220746F20746865207A65726F2061646472 PUSH1 0x40 DUP3 ADD MSTORE PUSH3 0x657373 PUSH1 0xE8 SHL PUSH1 0x60 DUP3 ADD MSTORE PUSH1 0x80 ADD SWAP1 JUMP INVALID LOG2 PUSH5 0x6970667358 0x22 SLT KECCAK256 CALLDATALOAD DUP10 GAS DUP14 0xBC PUSH17 0xB9D465DCABAD80C45DD854F1014D38991F CREATE2 0xDE KECCAK256 DUP11 AND 0xCF DUP4 CREATE SWAP12 PUSH5 0x736F6C6343 STOP ADDMOD SHR STOP CALLER "},"methodIdentifiers":{"BASIS_POINTS()":"e1f1c4a7","TAX_RATE()":"83f170be","allowance(address,address)":"dd62ed3e","approve(address,uint256)":"095ea7b3","balanceOf(address)":"70a08231","burn(uint256)":"42966c68","burnFrom(address,uint256)":"79cc6790","calculateNetAmount(uint256)":"bdab6fc6","calculateTax(uint256)":"483a9310","decimals()":"313ce567","decreaseAllowance(address,uint256)":"a457c2d7","increaseAllowance(address,uint256)":"39509351","mint(address,uint256)":"40c10f19","name()":"06fdde03","owner()":"8da5cb5b","pause()":"8456cb59","paused()":"5c975abb","renounceOwnership()":"715018a6","setTaxReceiver(address)":"cd8de42c","symbol()":"95d89b41","taxReceiver()":"e6ef73d6","totalSupply()":"18160ddd","transfer(address,uint256)":"a9059cbb","transferFrom(address,address,uint256)":"23b872dd","transferOwnership(address)":"f2fde38b","unpause()":"3f4ba83a"}}}}}