{
  "_format": "hh-sol-artifact-1",
  "contractName": "SPBToken",
  "sourceName": "contracts/tokens/SPBToken.sol",
  "abi": [
    {
      "inputs": [
        {
          "internalType": "string",
          "name": "name",
          "type": "string"
        },
        {
          "internalType": "string",
          "name": "symbol",
          "type": "string"
        },
        {
          "internalType": "uint256",
          "name": "initialSupply",
          "type": "uint256"
        },
        {
          "internalType": "address",
          "name": "_taxReceiver",
          "type": "address"
        }
      ],
      "stateMutability": "nonpayable",
      "type": "constructor"
    },
    {
      "anonymous": false,
      "inputs": [
        {
          "indexed": true,
          "internalType": "address",
          "name": "owner",
          "type": "address"
        },
        {
          "indexed": true,
          "internalType": "address",
          "name": "spender",
          "type": "address"
        },
        {
          "indexed": false,
          "internalType": "uint256",
          "name": "value",
          "type": "uint256"
        }
      ],
      "name": "Approval",
      "type": "event"
    },
    {
      "anonymous": false,
      "inputs": [
        {
          "indexed": true,
          "internalType": "address",
          "name": "previousOwner",
          "type": "address"
        },
        {
          "indexed": true,
          "internalType": "address",
          "name": "newOwner",
          "type": "address"
        }
      ],
      "name": "OwnershipTransferred",
      "type": "event"
    },
    {
      "anonymous": false,
      "inputs": [
        {
          "indexed": false,
          "internalType": "address",
          "name": "account",
          "type": "address"
        }
      ],
      "name": "Paused",
      "type": "event"
    },
    {
      "anonymous": false,
      "inputs": [
        {
          "indexed": true,
          "internalType": "address",
          "name": "from",
          "type": "address"
        },
        {
          "indexed": true,
          "internalType": "address",
          "name": "to",
          "type": "address"
        },
        {
          "indexed": false,
          "internalType": "uint256",
          "name": "taxAmount",
          "type": "uint256"
        }
      ],
      "name": "TaxCollected",
      "type": "event"
    },
    {
      "anonymous": false,
      "inputs": [
        {
          "indexed": true,
          "internalType": "address",
          "name": "oldReceiver",
          "type": "address"
        },
        {
          "indexed": true,
          "internalType": "address",
          "name": "newReceiver",
          "type": "address"
        }
      ],
      "name": "TaxReceiverUpdated",
      "type": "event"
    },
    {
      "anonymous": false,
      "inputs": [
        {
          "indexed": true,
          "internalType": "address",
          "name": "from",
          "type": "address"
        },
        {
          "indexed": true,
          "internalType": "address",
          "name": "to",
          "type": "address"
        },
        {
          "indexed": false,
          "internalType": "uint256",
          "name": "value",
          "type": "uint256"
        }
      ],
      "name": "Transfer",
      "type": "event"
    },
    {
      "anonymous": false,
      "inputs": [
        {
          "indexed": false,
          "internalType": "address",
          "name": "account",
          "type": "address"
        }
      ],
      "name": "Unpaused",
      "type": "event"
    },
    {
      "inputs": [],
      "name": "BASIS_POINTS",
      "outputs": [
        {
          "internalType": "uint256",
          "name": "",
          "type": "uint256"
        }
      ],
      "stateMutability": "view",
      "type": "function"
    },
    {
      "inputs": [],
      "name": "TAX_RATE",
      "outputs": [
        {
          "internalType": "uint256",
          "name": "",
          "type": "uint256"
        }
      ],
      "stateMutability": "view",
      "type": "function"
    },
    {
      "inputs": [
        {
          "internalType": "address",
          "name": "owner",
          "type": "address"
        },
        {
          "internalType": "address",
          "name": "spender",
          "type": "address"
        }
      ],
      "name": "allowance",
      "outputs": [
        {
          "internalType": "uint256",
          "name": "",
          "type": "uint256"
        }
      ],
      "stateMutability": "view",
      "type": "function"
    },
    {
      "inputs": [
        {
          "internalType": "address",
          "name": "spender",
          "type": "address"
        },
        {
          "internalType": "uint256",
          "name": "amount",
          "type": "uint256"
        }
      ],
      "name": "approve",
      "outputs": [
        {
          "internalType": "bool",
          "name": "",
          "type": "bool"
        }
      ],
      "stateMutability": "nonpayable",
      "type": "function"
    },
    {
      "inputs": [
        {
          "internalType": "address",
          "name": "account",
          "type": "address"
        }
      ],
      "name": "balanceOf",
      "outputs": [
        {
          "internalType": "uint256",
          "name": "",
          "type": "uint256"
        }
      ],
      "stateMutability": "view",
      "type": "function"
    },
    {
      "inputs": [
        {
          "internalType": "uint256",
          "name": "amount",
          "type": "uint256"
        }
      ],
      "name": "burn",
      "outputs": [],
      "stateMutability": "nonpayable",
      "type": "function"
    },
    {
      "inputs": [
        {
          "internalType": "address",
          "name": "account",
          "type": "address"
        },
        {
          "internalType": "uint256",
          "name": "amount",
          "type": "uint256"
        }
      ],
      "name": "burnFrom",
      "outputs": [],
      "stateMutability": "nonpayable",
      "type": "function"
    },
    {
      "inputs": [
        {
          "internalType": "uint256",
          "name": "amount",
          "type": "uint256"
        }
      ],
      "name": "calculateNetAmount",
      "outputs": [
        {
          "internalType": "uint256",
          "name": "",
          "type": "uint256"
        }
      ],
      "stateMutability": "pure",
      "type": "function"
    },
    {
      "inputs": [
        {
          "internalType": "uint256",
          "name": "amount",
          "type": "uint256"
        }
      ],
      "name": "calculateTax",
      "outputs": [
        {
          "internalType": "uint256",
          "name": "",
          "type": "uint256"
        }
      ],
      "stateMutability": "pure",
      "type": "function"
    },
    {
      "inputs": [],
      "name": "decimals",
      "outputs": [
        {
          "internalType": "uint8",
          "name": "",
          "type": "uint8"
        }
      ],
      "stateMutability": "view",
      "type": "function"
    },
    {
      "inputs": [
        {
          "internalType": "address",
          "name": "spender",
          "type": "address"
        },
        {
          "internalType": "uint256",
          "name": "subtractedValue",
          "type": "uint256"
        }
      ],
      "name": "decreaseAllowance",
      "outputs": [
        {
          "internalType": "bool",
          "name": "",
          "type": "bool"
        }
      ],
      "stateMutability": "nonpayable",
      "type": "function"
    },
    {
      "inputs": [
        {
          "internalType": "address",
          "name": "spender",
          "type": "address"
        },
        {
          "internalType": "uint256",
          "name": "addedValue",
          "type": "uint256"
        }
      ],
      "name": "increaseAllowance",
      "outputs": [
        {
          "internalType": "bool",
          "name": "",
          "type": "bool"
        }
      ],
      "stateMutability": "nonpayable",
      "type": "function"
    },
    {
      "inputs": [
        {
          "internalType": "address",
          "name": "to",
          "type": "address"
        },
        {
          "internalType": "uint256",
          "name": "amount",
          "type": "uint256"
        }
      ],
      "name": "mint",
      "outputs": [],
      "stateMutability": "nonpayable",
      "type": "function"
    },
    {
      "inputs": [],
      "name": "name",
      "outputs": [
        {
          "internalType": "string",
          "name": "",
          "type": "string"
        }
      ],
      "stateMutability": "view",
      "type": "function"
    },
    {
      "inputs": [],
      "name": "owner",
      "outputs": [
        {
          "internalType": "address",
          "name": "",
          "type": "address"
        }
      ],
      "stateMutability": "view",
      "type": "function"
    },
    {
      "inputs": [],
      "name": "pause",
      "outputs": [],
      "stateMutability": "nonpayable",
      "type": "function"
    },
    {
      "inputs": [],
      "name": "paused",
      "outputs": [
        {
          "internalType": "bool",
          "name": "",
          "type": "bool"
        }
      ],
      "stateMutability": "view",
      "type": "function"
    },
    {
      "inputs": [],
      "name": "renounceOwnership",
      "outputs": [],
      "stateMutability": "nonpayable",
      "type": "function"
    },
    {
      "inputs": [
        {
          "internalType": "address",
          "name": "_newTaxReceiver",
          "type": "address"
        }
      ],
      "name": "setTaxReceiver",
      "outputs": [],
      "stateMutability": "nonpayable",
      "type": "function"
    },
    {
      "inputs": [],
      "name": "symbol",
      "outputs": [
        {
          "internalType": "string",
          "name": "",
          "type": "string"
        }
      ],
      "stateMutability": "view",
      "type": "function"
    },
    {
      "inputs": [],
      "name": "taxReceiver",
      "outputs": [
        {
          "internalType": "address",
          "name": "",
          "type": "address"
        }
      ],
      "stateMutability": "view",
      "type": "function"
    },
    {
      "inputs": [],
      "name": "totalSupply",
      "outputs": [
        {
          "internalType": "uint256",
          "name": "",
          "type": "uint256"
        }
      ],
      "stateMutability": "view",
      "type": "function"
    },
    {
      "inputs": [
        {
          "internalType": "address",
          "name": "to",
          "type": "address"
        },
        {
          "internalType": "uint256",
          "name": "amount",
          "type": "uint256"
        }
      ],
      "name": "transfer",
      "outputs": [
        {
          "internalType": "bool",
          "name": "",
          "type": "bool"
        }
      ],
      "stateMutability": "nonpayable",
      "type": "function"
    },
    {
      "inputs": [
        {
          "internalType": "address",
          "name": "from",
          "type": "address"
        },
        {
          "internalType": "address",
          "name": "to",
          "type": "address"
        },
        {
          "internalType": "uint256",
          "name": "amount",
          "type": "uint256"
        }
      ],
      "name": "transferFrom",
      "outputs": [
        {
          "internalType": "bool",
          "name": "",
          "type": "bool"
        }
      ],
      "stateMutability": "nonpayable",
      "type": "function"
    },
    {
      "inputs": [
        {
          "internalType": "address",
          "name": "newOwner",
          "type": "address"
        }
      ],
      "name": "transferOwnership",
      "outputs": [],
      "stateMutability": "nonpayable",
      "type": "function"
    },
    {
      "inputs": [],
      "name": "unpause",
      "outputs": [],
      "stateMutability": "nonpayable",
      "type": "function"
    }
  ],
  "bytecode": "0x608060405234801561001057600080fd5b5060405161185038038061185083398101604081905261002f91610356565b8383600361003d8382610471565b50600461004a8282610471565b50506005805460ff191690555061006033610111565b6001600160a01b0381166100c75760405162461bcd60e51b815260206004820152602360248201527f5461782072656365697665722063616e6e6f74206265207a65726f206164647260448201526265737360e81b60648201526084015b60405180910390fd5b600680546001600160a01b0319166001600160a01b038316179055610108336100ee601290565b6100f990600a61062e565b6101039085610644565b61016b565b5050505061066e565b600580546001600160a01b03838116610100818102610100600160a81b031985161790945560405193909204169182907f8be0079c531659141344cd1fd0a4f28419497f9722a3daafe3b4186f6b6457e090600090a35050565b6001600160a01b0382166101c15760405162461bcd60e51b815260206004820152601f60248201527f45524332303a206d696e7420746f20746865207a65726f20616464726573730060448201526064016100be565b6101cd60008383610236565b80600260008282546101df919061065b565b90915550506001600160a01b038216600081815260208181526040808320805486019055518481527fddf252ad1be2c89b69c2b068fc378daa952ba7f163c4a11628f55a4df523b3ef910160405180910390a35050565b61023e610255565b6102508383836001600160e01b038416565b505050565b60055460ff161561029b5760405162461bcd60e51b815260206004820152601060248201526f14185d5cd8589b194e881c185d5cd95960821b60448201526064016100be565b565b634e487b7160e01b600052604160045260246000fd5b600082601f8301126102c457600080fd5b81516001600160401b038111156102dd576102dd61029d565b604051601f8201601f19908116603f011681016001600160401b038111828210171561030b5761030b61029d565b60405281815283820160200185101561032357600080fd5b60005b8281101561034257602081860181015183830182015201610326565b506000918101602001919091529392505050565b6000806000806080858703121561036c57600080fd5b84516001600160401b0381111561038257600080fd5b61038e878288016102b3565b602087015190955090506001600160401b038111156103ac57600080fd5b6103b8878288016102b3565b60408701516060880151919550935090506001600160a01b03811681146103de57600080fd5b939692955090935050565b600181811c908216806103fd57607f821691505b60208210810361041d57634e487b7160e01b600052602260045260246000fd5b50919050565b601f82111561025057806000526020600020601f840160051c8101602085101561044a5750805b601f840160051c820191505b8181101561046a5760008155600101610456565b5050505050565b81516001600160401b0381111561048a5761048a61029d565b61049e8161049884546103e9565b84610423565b6020601f8211600181146104d257600083156104ba5750848201515b600019600385901b1c1916600184901b17845561046a565b600084815260208120601f198516915b8281101561050257878501518255602094850194600190920191016104e2565b50848210156105205786840151600019600387901b60f8161c191681555b50505050600190811b01905550565b634e487b7160e01b600052601160045260246000fd5b6001815b6001841115610580578085048111156105645761056461052f565b600184161561057257908102905b60019390931c928002610549565b935093915050565b60008261059757506001610628565b816105a457506000610628565b81600181146105ba57600281146105c4576105e0565b6001915050610628565b60ff8411156105d5576105d561052f565b50506001821b610628565b5060208310610133831016604e8410600b8410161715610603575081810a610628565b6106106000198484610545565b80600019048211156106245761062461052f565b0290505b92915050565b600061063d60ff841683610588565b9392505050565b80820281158282048414176106285761062861052f565b808201808211156106285761062861052f565b6111d38061067d6000396000f3fe608060405234801561001057600080fd5b506004361061018e5760003560e01c806379cc6790116100de578063a9059cbb11610097578063dd62ed3e11610071578063dd62ed3e1461033b578063e1f1c4a71461034e578063e6ef73d614610357578063f2fde38b1461036a57600080fd5b8063a9059cbb14610302578063bdab6fc614610315578063cd8de42c1461032857600080fd5b806379cc67901461029a57806383f170be146102ad5780638456cb59146102b55780638da5cb5b146102bd57806395d89b41146102e7578063a457c2d7146102ef57600080fd5b80633f4ba83a1161014b578063483a931011610125578063483a93101461024b5780635c975abb1461025e57806370a0823114610269578063715018a61461029257600080fd5b80633f4ba83a1461021b57806340c10f191461022557806342966c681461023857600080fd5b806306fdde0314610193578063095ea7b3146101b157806318160ddd146101d457806323b872dd146101e6578063313ce567146101f95780633950935114610208575b600080fd5b61019b61037d565b6040516101a89190610f2e565b60405180910390f35b6101c46101bf366004610f98565b61040f565b60405190151581526020016101a8565b6002545b6040519081526020016101a8565b6101c46101f4366004610fc2565b610429565b604051601281526020016101a8565b6101c4610216366004610f98565b610455565b610223610477565b005b610223610233366004610f98565b610489565b610223610246366004610fff565b61049f565b6101d8610259366004610fff565b6104ac565b60055460ff166101c4565b6101d8610277366004611018565b6001600160a01b031660009081526020819052604090205490565b6102236104c6565b6102236102a8366004610f98565b6104d8565b6101d8606481565b6102236104ed565b60055461010090046001600160a01b03165b6040516001600160a01b0390911681526020016101a8565b61019b6104fd565b6101c46102fd366004610f98565b61050c565b6101c4610310366004610f98565b61058c565b6101d8610323366004610fff565b6105a2565b610223610336366004611018565b6105c1565b6101d8610349366004611033565b61067d565b6101d861271081565b6006546102cf906001600160a01b031681565b610223610378366004611018565b6106a8565b60606003805461038c90611066565b80601f01602080910402602001604051908101604052809291908181526020018280546103b890611066565b80156104055780601f106103da57610100808354040283529160200191610405565b820191906000526020600020905b8154815290600101906020018083116103e857829003601f168201915b5050505050905090565b60003361041d81858561071e565b60019150505b92915050565b6000610433610842565b3361043f858285610888565b61044a858585610902565b506001949350505050565b60003361041d818585610468838361067d565b61047291906110b6565b61071e565b61047f610a56565b610487610ab6565b565b610491610a56565b61049b8282610b08565b5050565b6104a93382610bd3565b50565b60006127106104bc6064846110c9565b61042391906110e0565b6104ce610a56565b6104876000610d11565b6104e3823383610888565b61049b8282610bd3565b6104f5610a56565b610487610d6b565b60606004805461038c90611066565b6000338161051a828661067d565b90508381101561057f5760405162461bcd60e51b815260206004820152602560248201527f45524332303a2064656372656173656420616c6c6f77616e63652062656c6f77604482015264207a65726f60d81b60648201526084015b60405180910390fd5b61044a828686840361071e565b6000610596610842565b3361041d818585610902565b6000806105ae836104ac565b90506105ba8184611102565b9392505050565b6105c9610a56565b6001600160a01b03811661062b5760405162461bcd60e51b815260206004820152602360248201527f5461782072656365697665722063616e6e6f74206265207a65726f206164647260448201526265737360e81b6064820152608401610576565b600680546001600160a01b038381166001600160a01b0319831681179093556040519116919082907ff970bc488f38cdc7caf559de1924e9c564d90c54d1767c82df2cbc55c9829a5e90600090a35050565b6001600160a01b03918216600090815260016020908152604080832093909416825291909152205490565b6106b0610a56565b6001600160a01b0381166107155760405162461bcd60e51b815260206004820152602660248201527f4f776e61626c653a206e6577206f776e657220697320746865207a65726f206160448201526564647265737360d01b6064820152608401610576565b6104a981610d11565b6001600160a01b0383166107805760405162461bcd60e51b8152602060048201526024808201527f45524332303a20617070726f76652066726f6d20746865207a65726f206164646044820152637265737360e01b6064820152608401610576565b6001600160a01b0382166107e15760405162461bcd60e51b815260206004820152602260248201527f45524332303a20617070726f766520746f20746865207a65726f206164647265604482015261737360f01b6064820152608401610576565b6001600160a01b0383811660008181526001602090815260408083209487168084529482529182902085905590518481527f8c5be1e5ebec7d5bd14f71427d1e84f3dd0314c0f7b2291e5b200ac8c7c3b925910160405180910390a3505050565b60055460ff16156104875760405162461bcd60e51b815260206004820152601060248201526f14185d5cd8589b194e881c185d5cd95960821b6044820152606401610576565b6000610894848461067d565b905060001981146108fc57818110156108ef5760405162461bcd60e51b815260206004820152601d60248201527f45524332303a20696e73756666696369656e7420616c6c6f77616e63650000006044820152606401610576565b6108fc848484840361071e565b50505050565b6001600160a01b0383166109285760405162461bcd60e51b815260040161057690611115565b6001600160a01b03821661094e5760405162461bcd60e51b81526004016105769061115a565b6005546001600160a01b0384811661010090920416148061098157506005546001600160a01b0383811661010090920416145b8061099957506006546001600160a01b038481169116145b156109ae576109a9838383610da8565b505050565b60006127106109be6064846110c9565b6109c891906110e0565b905060006109d68284611102565b90506109e3858583610da8565b8115610a4f57600654610a019086906001600160a01b031684610da8565b836001600160a01b0316856001600160a01b03167f5d37fd68fe66745a199f8c603e00ae02183f4aabb8ec0089589b0b40c4ead5e184604051610a4691815260200190565b60405180910390a35b5050505050565b6005546001600160a01b036101009091041633146104875760405162461bcd60e51b815260206004820181905260248201527f4f776e61626c653a2063616c6c6572206973206e6f7420746865206f776e65726044820152606401610576565b610abe610edd565b6005805460ff191690557f5db9ee0a495bf2e6ff9c91a7834c1ba4fdd244a5e8aa4e537bd38aeae4b073aa335b6040516001600160a01b03909116815260200160405180910390a1565b6001600160a01b038216610b5e5760405162461bcd60e51b815260206004820152601f60248201527f45524332303a206d696e7420746f20746865207a65726f2061646472657373006044820152606401610576565b610b6a60008383610f26565b8060026000828254610b7c91906110b6565b90915550506001600160a01b038216600081815260208181526040808320805486019055518481527fddf252ad1be2c89b69c2b068fc378daa952ba7f163c4a11628f55a4df523b3ef910160405180910390a35050565b6001600160a01b038216610c335760405162461bcd60e51b815260206004820152602160248201527f45524332303a206275726e2066726f6d20746865207a65726f206164647265736044820152607360f81b6064820152608401610576565b610c3f82600083610f26565b6001600160a01b03821660009081526020819052604090205481811015610cb35760405162461bcd60e51b815260206004820152602260248201527f45524332303a206275726e20616d6f756e7420657863656564732062616c616e604482015261636560f01b6064820152608401610576565b6001600160a01b0383166000818152602081815260408083208686039055600280548790039055518581529192917fddf252ad1be2c89b69c2b068fc378daa952ba7f163c4a11628f55a4df523b3ef910160405180910390a3505050565b600580546001600160a01b03838116610100818102610100600160a81b031985161790945560405193909204169182907f8be0079c531659141344cd1fd0a4f28419497f9722a3daafe3b4186f6b6457e090600090a35050565b610d73610842565b6005805460ff191660011790557f62e78cea01bee320cd4e420270b5ea74000d11b0c9f74754ebdbfc544b05a258610aeb3390565b6001600160a01b038316610dce5760405162461bcd60e51b815260040161057690611115565b6001600160a01b038216610df45760405162461bcd60e51b81526004016105769061115a565b610dff838383610f26565b6001600160a01b03831660009081526020819052604090205481811015610e775760405162461bcd60e51b815260206004820152602660248201527f45524332303a207472616e7366657220616d6f756e7420657863656564732062604482015265616c616e636560d01b6064820152608401610576565b6001600160a01b03848116600081815260208181526040808320878703905593871680835291849020805487019055925185815290927fddf252ad1be2c89b69c2b068fc378daa952ba7f163c4a11628f55a4df523b3ef910160405180910390a36108fc565b60055460ff166104875760405162461bcd60e51b815260206004820152601460248201527314185d5cd8589b194e881b9bdd081c185d5cd95960621b6044820152606401610576565b6109a9610842565b602081526000825180602084015260005b81811015610f5c5760208186018101516040868401015201610f3f565b506000604082850101526040601f19601f83011684010191505092915050565b80356001600160a01b0381168114610f9357600080fd5b919050565b60008060408385031215610fab57600080fd5b610fb483610f7c565b946020939093013593505050565b600080600060608486031215610fd757600080fd5b610fe084610f7c565b9250610fee60208501610f7c565b929592945050506040919091013590565b60006020828403121561101157600080fd5b5035919050565b60006020828403121561102a57600080fd5b6105ba82610f7c565b6000806040838503121561104657600080fd5b61104f83610f7c565b915061105d60208401610f7c565b90509250929050565b600181811c9082168061107a57607f821691505b60208210810361109a57634e487b7160e01b600052602260045260246000fd5b50919050565b634e487b7160e01b600052601160045260246000fd5b80820180821115610423576104236110a0565b8082028115828204841417610423576104236110a0565b6000826110fd57634e487b7160e01b600052601260045260246000fd5b500490565b81810381811115610423576104236110a0565b60208082526025908201527f45524332303a207472616e736665722066726f6d20746865207a65726f206164604082015264647265737360d81b606082015260800190565b60208082526023908201527f45524332303a207472616e7366657220746f20746865207a65726f206164647260408201526265737360e81b60608201526080019056fea26469706673582212201c253c2dd1f4668cfa815f9c32915d5f1f6140587540e849ed501260bed2239164736f6c634300081c0033",
  "linkReferences": {},
  "deployedLinkReferences": {}
}